:020000040800F2
:10000000A0130020810100088D2E0008BD250008E6
:1000100000000000000000000000000000000000E0
:10002000000000000000000000000000932E000807
:100030000000000000000000912E0008E52E0008DE
:100040009301000893010008930100089301000840
:100050009301000893010008930100089301000830
:100060009301000893010008930100089301000820
:1000700093010008D13100089301000893010008A2
:100080009301000800000000000000009301000838
:10009000000000009301000893010008930100088C
:1000A00093010008930100089301000893010008E0
:1000B00093010008000000000000000000000000A4
:1000C00000F002F800F04CF812A030C808382418EC
:1000D0002D18AC4201D100F043F80FCCA246AB463C
:1000E0000CA730CF2D1B083F3F197C427F1E544484
:1000F0002D090426F441641EAC4201D300F030F80F
:100100000126334200D0FB1A3343984754465D46DC
:10011000DFE700002855000048550000103A02D3E0
:1001200078C878C1FAD8520701D330C830C101D598
:1001300004680C6070470000704700000023002432
:1001400000250026103A01D378C1FBD8520700D30E
:1001500030C100D50B6070471FB51FBD10B510BD75
:1001600000F03EFA1146FFF7F7FF05F03FF900F007
:1001700056FA03B4FFF7F2FF03BC00F0ABFA00003D
:100180000748804707480047FEE7FEE7FEE7FEE72F
:10019000FEE7FEE704480549054A064B70470000A4
:1001A0006D2F0008C1000008A00D0020A013002042
:1001B000A00F0020A00F002030B5441C03E0017800
:1001C000401C00290DD08107F9D10B4BDD0104C87B
:1001D000D11A91432940FAD0001B0A0603D0C01E51
:1001E00030BD001B30BD0A0401D0801E30BD0902A5
:1001F000FCD0401E30BD00000101010100220309B6
:100200008B422CD3030A8B4211D300239C464EE031
:1002100003460B433CD4002243088B4231D30309ED
:100220008B421CD3030A8B4201D394463FE0C3099F
:100230008B4201D3CB01C01A524183098B4201D3B7
:100240008B01C01A524143098B4201D34B01C01AA2
:10025000524103098B4201D30B01C01A5241C3081A
:100260008B4201D3CB00C01A524183088B4201D389
:100270008B00C01A524143088B4201D34B00C01A75
:100280005241411A00D201465241104670475DE08A
:10029000CA0F00D04942031000D3404253409C464D
:1002A000002203098B422DD3030A8B4212D389010A
:1002B000FC2212BA030A8B420CD3890192118B42A1
:1002C00008D3890192118B4204D389013AD092114B
:1002D00000E08909C3098B4201D3CB01C01A524106
:1002E00083098B4201D38B01C01A524143098B42CF
:1002F00001D34B01C01A524103098B4201D30B01B8
:10030000C01A5241C3088B4201D3CB00C01A5241DC
:1003100083088B4201D38B00C01A5241D9D24308C3
:100320008B4201D34B00C01A5241411A00D2014600
:100330005241104663465B1001D34042002B00D56A
:100340004942704763465B1000D3404201B50549FE
:10035000002802DC491C084000E00846C046C046B0
:1003600002BD00BFFFFFFF7F70477047704700006E
:10037000F0B5FF252D04C609C209FF2704462E400B
:100380000137CB093E4348402A402B400746002A0C
:100390006BD0002B69D0AA4267D0AB4265D0002851
:1003A00000DA32460125ED0529432C4309022002DB
:1003B000090AD21A4B0C7F24E31A434C000A7C44EE
:1003C000E35C7D242404121914145B00A2188842F3
:1003D00001D3521C00E0400049420C465C4324110A
:1003E0005C43DB016415E318040A5C43C502200D7D
:1003F0000C4644436419250A5D432303EC0C0D4667
:10040000654300030019EB184C42A34201D35B186B
:10041000401CD4052018002B07D05B00C91804D35A
:10042000401C002901D1400840003F2189048A4234
:1004300009D3002A08DC1106090F04D0032149075B
:100440004018C00FC007F0BD0122410012068918F4
:100450007F2252069142F6D205214907C84201D5B2
:100460009010F0BDFF20C005F0BD002F00DA32462D
:100470001648AA4207D2AB4205D21902090E17D07C
:10048000F80FC007F0BDFF2563002D06AB42F9D879
:100490004900A942F6D8AB4201D1A942F2D0A94203
:1004A00001D1002101E061004908D0050843F0BDF9
:1004B0001102090EFBD0FF200243D005F0BD0A4611
:1004C0000146104654E70000C65100000000C07FFE
:1004D00010B501469E240002CA15A307002A02D0C7
:1004E0001843002A04DBA21A002A0CDDD04010BDFC
:1004F0001206120E01D140004008A21A03D4D040C7
:1005000040420028F3DDFF2248001206904201D944
:10051000002010BDC817C043584010BD1F22030C57
:1005200002D10F2200041CD0030E01D10002083AB0
:10053000030F01D10001121F830F01D18000921E11
:10054000002801DB4000521ED2055118021251183A
:100550001922904004D3491C002801D149084900C0
:1005600008467047C10FC90700D0404201229207D8
:100570001143D3E701218907D0E7000010B5FF231D
:100580001B0644009C421DD84C009C421AD80346CE
:10059000124A0B4307D4401A02D3EFF3008010BD78
:1005A000EFF3008010BD081A03D3EFF300809043EF
:1005B00005E0EFF3008001219043C907084380F371
:1005C000008810BD0D231B041A4204D011460020E0
:1005D00000F02DF810BD00F041F810BD00000090B3
:1005E000754600F043F8AE46050069465346C0081C
:1005F000C000854618B020B5FFF7CCFD60BCB646FC
:1006000000260027C0C5C0C5C0C5C0C5C0C5C0C57F
:10061000C0C5C0C5403D490849008D46704710B56A
:100620000446C046C0462046FFF7A3FD10BDC802E1
:1006300012D54803400F002804D0C803C04301214D
:1006400088407047EFF3008000010009032109078B
:10065000084380F3008870470020704710B50248B7
:1006600000F008F810BD00000000C07F004870478F
:100670003800002010B50C461107090F092904D0D5
:100680000A290AD008290CD104E011460820FFF7F6
:10069000CEFF06E0510606D501E0510601D5012046
:1006A000C007214610BDD10607D501010909CC08B4
:1006B0004907000E0006044309E0410F20024907E4
:1006C000000A0143200E00061D22D14101430846C5
:1006D000E7E7000001491820ABBEFEE72600020054
:1006E000704772B6FFE7FEE780B584B0039000F074
:1006F0009BF90290039801900198401C002806D0B5
:10070000FFE709480178019840180190FFE7FFE7EB
:1007100000F08AF90299401A0199884201D2FFE754
:10072000F6E704B080BDC046300000208BB00A90D0
:10073000099100200690FFE7099800680699C840D3
:10074000002800D15BE109980068069A01219140D8
:10075000084007900798002800D14CE109984068AC
:10076000022805D0FFE709984068122822D1FFE748
:100770000A980699C90889004018006A08900698E6
:100780004007C10E0F2002468A4008999143089104
:1007900009990969014006984007C00E81400898F0
:1007A0000843089008980A99069AD2089200891876
:1007B0000862FFE70A980068089006984100032045
:1007C00002468A4008999143089109994968014075
:1007D00006984000814008980843089008980A99B4
:1007E00008600998406801280FD0FFE70998406821
:1007F00002280AD0FFE709984068112805D0FFE7D2
:100800000998406812282CD1FFE70A988068089060
:100810000698400003218140089888430890099871
:10082000C1680698400081400898084308900898DD
:100830000A9988600A9840680890069801218140CA
:1008400008988843089009984068102108400109D9
:100850000698814008980843089008980A994860CB
:10086000FFE709984068032816D0FFE70A98C06898
:10087000089006984000032181400898884308901A
:1008800009988168069840008140089808430890BC
:1008900008980A99C860FFE70998C079C00600283F
:1008A00000D4A7E006980321884356494058089091
:1008B00006988007C00E0F21814008988843089051
:1008C0000A9805210907884203D1FFE70020059017
:1008D0002DE00A984C49884203D1FFE7012004909B
:1008E00022E00A984949884203D1FFE70220039099
:1008F00017E00A984649884203D1FFE70320029097
:100900000CE00A99434A0520062300939142019086
:1009100001D00098019001980290FFE7029803909F
:10092000FFE703980490FFE704980590FFE7059917
:1009300006988007C00E81400898084308900898E0
:100940000699032291432F4A885033480068089043
:10095000079908988843089009988079C00700286B
:1009600005D0FFE70799089808430890FFE7089823
:100970002949086029480068089007990898884321
:100980000890099880798007002805D5FFE7079926
:10099000089808430890FFE7089820490860204815
:1009A000006808900799089888430890099880790A
:1009B000C006002805D5FFE7079908980843089066
:1009C000FFE70898164908601648006808900799DC
:1009D000089888430890099880798006002805D5F2
:1009E000FFE70799089808430890FFE708980D4922
:1009F0000860FFE7FFE70698401C06909CE60BB0F6
:100A00007047C046601802400004005000080050C3
:100A1000000C00500014005080180240841802405E
:100A20000018024004180240014800687047C046A0
:100A30009809002010B583B00190009101984121E0
:100A4000405C202839D1FFE7FFE701984021405C56
:100A5000012804D1FFE702A90220087031E00199C2
:100A6000402201208854FFE7FFE70199412224201A
:100A70008854019801680868012398430860019828
:100A8000016808681C03A0430860009C0198016885
:100A900008682043086001980168086818430860E6
:100AA000019920208854FFE70199402200208854B2
:100AB000FFE702A90020087003E002A902200870E5
:100AC000FFE702A8007803B010BD84B00290019146
:100AD00002984121405C20283FD1FFE7FFE70298C0
:100AE0004021405C012804D1FFE703A902200870DF
:100AF00037E00299402201208854FFE7FFE702997E
:100B000041222420885402980168086801239843F0
:100B10000860029800680068009000980F210902A0
:100B200088430090019801020098084300900098C3
:100B3000029909680860029801680868184308600B
:100B4000029920208854FFE702994022002088540F
:100B5000FFE703A90020087003E003A90220087042
:100B6000FFE703A8007804B07047000080B582B0AA
:100B700000900098002804D1FFE701A90120087027
:100B80007EE000984121405C002808D1FFE70099F1
:100B9000402200208854009800F096FAFFE7009960
:100BA000412224208854009801680868012290435B
:100BB0000860009948680F231B069843096808617C
:100BC000009801688868D203904388600098C068E4
:100BD000012808D1FFE7009988680122D203104359
:100BE0000968886007E00099886821229202104312
:100BF00009688860FFE70098C068022808D1FFE70D
:100C00000098016848680122D2021043486007E05A
:100C10000098016848680122D20290434860FFE7CB
:100C2000009801684868184A1043486000980168B5
:100C3000C8680122D3039843C860009908694B69CA
:100C400018438B691B0218430968C8600099C8697A
:100C50000B6A184309680860009801680868104327
:100C60000860009900204864009A41232021D15453
:100C70000099086300994222885401A90870FFE78F
:100C800001A8007802B080BD0080000210B588B0D5
:100C90000A9C069005A80180049203A80380069888
:100CA0004121405C202800D0E5E0FFE70698402184
:100CB000405C012804D1FFE707A902200870DEE0AC
:100CC0000699402201208854FFE7FFE7FFF7ACFEBA
:100CD00002900698029900910122D103192301F094
:100CE000B3FD002804D0FFE707A901200870C6E083
:100CF00006994122222088540699422210208854C5
:100D00000699002048640499069A51620399069A4C
:100D10005185069948630698408D000A00280FD037
:100D2000FFE70699FF200885069805A9098828226B
:100D3000825C554B009301231B0601F05BFD0FE025
:100D40000698408D06990885069805A909882822E5
:100D5000825C4D4B009301235B0601F04BFDFFE7E6
:100D6000FFE70698408D00285ED0FFE706980A99B5
:100D7000029A01F0CBFD002804D0FFE707A901206B
:100D800008707CE006980068406A0699496A087015
:100D90000699486A401C48620699088D401E0885DD
:100DA0000699488D401E48850698408D00283AD007
:100DB000FFE70698008D002835D1FFE706980A9BCB
:100DC000029900918021002201F03EFD002804D00C
:100DD000FFE707A90120087051E00698408D000A3E
:100DE00000280FD0FFE70699FF200885069805A97F
:100DF00009882822825C0023009301231B0601F04E
:100E0000F9FC0FE00698408D06990885069805A91B
:100E100009882822825C0023009301235B0601F0ED
:100E2000E9FCFFE7FFE79CE706980A99029A01F0C0
:100E30001DFE002804D0FFE707A9012008701EE06E
:100E4000069801682020C86106990A6851689D4B80
:100E50001940516006994122885406994222002087
:100E60008854FFE70699402200208854FFE707A92D
:100E70000020087003E007A902200870FFE707A818
:100E8000007808B010BDC0460024008010B588B0BE
:100E90000A9C069005A80180049203A80380069886
:100EA0004121405C202800D001E1FFE70698402165
:100EB000405C012804D1FFE707A902200870FAE08E
:100EC0000699402201208854FFE7FFE7FFF7ACFDB9
:100ED00002900698029900910122D103192301F092
:100EE000B3FC002804D0FFE707A901200870E2E066
:100EF00006994122212088540699422210208854C4
:100F00000699002048640499069A51620399069A4A
:100F10005185069948630698408D000A002807D03D
:100F2000FFE70699FF20088501200006019007E0F1
:100F30000698408D06990885012040060190FFE73C
:100F40000698008D00281DD0FFE70699486A0078B2
:100F5000096888620699486A401C48620699488D6B
:100F6000401E48850699088D401E0885069805A9EB
:100F70000988028D521C019B514C0094D2B201F0A1
:100F800039FC0AE0069805A909882822825C019BA1
:100F90004B4C009401F02EFCFFE7FFE70698408DD4
:100FA00000285DD0FFE706980A99029A01F0AEFD8D
:100FB000002804D0FFE707A9012008707BE006990C
:100FC000486A0078096888620699486A401C486245
:100FD0000699488D401E48850699088D401E088553
:100FE0000698408D00283AD0FFE70698008D00282B
:100FF00035D1FFE706980A9B0299009180210022D3
:1010000001F022FC002804D0FFE707A901200870A6
:1010100051E00698408D000A00280FD0FFE706999E
:10102000FF200885069805A909882822825C0023EC
:10103000009301231B0601F0DDFB0FE00698408DB5
:1010400006990885069805A909882822825C00234C
:10105000009301235B0601F0CDFBFFE7FFE79DE76F
:1010600006980A99029A01F001FD002804D0FFE7D2
:1010700007A9012008701EE0069801682020C861B9
:1010800006990A6851680F4B194051600699412230
:1010900088540699422200208854FFE7069940228E
:1010A00000208854FFE707A90020087003E007A983
:1010B00002200870FFE707A8007808B010BDC046FE
:1010C0000020008000E800FE80B594B0139000205E
:1010D00001901290119010900F900E900D900C9026
:1010E0000B900A900990089007900690139800685A
:1010F0003249884232D1FFE7022006900020099051
:1011000006A800F013FA002803D0FFE7FFF7E9FA7A
:10111000FFE7FFE72B48026802210A4302600068EC
:10112000084005900598FFE7C0200E9012200F9010
:101130000020109011900620129023480EA9FFF76E
:10114000F5FAFFE7F8480268012149050A43026001
:101150000068084004900498FFE72CE013980068AA
:101160001749884226D1FFE7FFE7164802680121A8
:101170000A4302600068084003900398FFE7C0201C
:101180000E9012200F9000201090119006201290C7
:10119000052000070EA9FFF7C9FAFFE7E248026839
:1011A000012189050A430260006808400290029804
:1011B000FFE7FFE7FFE714B080BDC04600540040E2
:1011C0000058004034100240000400502D480278BE
:1011D00002490868801808607047C04698090020D6
:1011E00080B582B001A900200870032000F00EF83D
:1011F000002804D0FFE701A90120087002E000F0F8
:1012000047F8FFE701A8007802B080BD80B584B040
:10121000039002A9002008701A480078002829D0FD
:10122000FFE7194800680190164801787D20C0004A
:10123000FEF7E4FF01460198FEF7E0FF00F05AFEDA
:10124000002812D1FFE70398032809D8FFE7039984
:101250000022D04300F043F803980C49086003E0F3
:1012600002A901200870FFE703E002A9012008702D
:10127000FFE703E002A901200870FFE702A8007859
:1012800004B080BD300000200000002034000020A9
:1012900082B0FFE70B48026801210A430260006840
:1012A000084001900198FFE7FFE79F48026801218D
:1012B00009070A4302600068084000900098FFE7B1
:1012C00002B070474010024080B582B0014601A8CC
:1012D00001700021405602F06DFE02B080BD80B565
:1012E00084B0034603A80370029101920021405686
:1012F000029902F075FE04B080BD82B001900198A1
:10130000006800900198B52189000123435001999C
:10131000B320820000208854009A516D1943516512
:10132000009A516D02231943516502B070470000C5
:1013300070B588B006900698002804D1FFE707A989
:1013400001200870B7E006985D49405C002809D18B
:10135000FFE70699A520820000208854069800F037
:10136000B1F8FFE70699564A0320885406980068AA
:1013700002F0EAFD05A900200870FFE705A8007843
:101380000699097988422DDAFFE7069805AB1C78A3
:1013900028221146614341180120487518780699A2
:1013A000144644430919087506981C781146614390
:1013B00041180020C87506991D7814466C43091918
:1013C000486206991D7814466C430919886206998B
:1013D0001B785A438918C862FFE70598401C05A985
:1013E0000870CBE705A900200870FFE705A8007882
:1013F00006990979884238DAFFE7069805AB1C7828
:101400002822114661434118FF2425465635002005
:1014100048551978069D16464E43AD195526B60017
:10142000A95506991E78154675434919583408552B
:1014300006991D7814466C4309195924A4000851D3
:1014400006991D7814466C4309192D24E4000851AF
:1014500006991B785A4389185B2292008850FFE74F
:101460000598401C05A90870C0E7069908680A7C21
:1014700001AB1A73CA6803928A68029249680191A3
:10148000039B029A0199049C009402F037FD06998F
:101490000020487406990A4A012088540698007B67
:1014A000012804D1FFE70698FFF727FFFFE707A908
:1014B00000200870FFE707A8007808B070BDC0469C
:1014C0009502000080B58CB00B90002001900A902E
:1014D00009900890079006900590049003900B984F
:1014E0000068104988421AD1FFE7082003900020C5
:1014F000089003A800F01AF8002803D0FFE7FFF7D0
:10150000F0F8FFE7FFE77D480268012149030A433D
:1015100002600068084002900298FFE7FFE70CB005
:1015200080BDC046005C00403C10024080B588B0E1
:10153000079004A90020087003A908700798007894
:101540004006002878D5FFE702A9002008706B4804
:101550000068C000002810D4FFE7FFE76748026872
:10156000012109070A4302600068084001900198C0
:10157000FFE702A901200870FFE7F848006803218F
:101580000902084006900698002817D0FFE7069841
:101590000799C969884211D0FFE7F049086803221A
:1015A000120290430690086801221204104308605A
:1015B00008689043086006980860FFE706A800786E
:1015C000C007002818D0FFE7FFF72EFA0590FFE7C5
:1015D000E2480068800700280DD4FFE7FFF724FAEF
:1015E0000599401AE249884204D3FFE704A9032081
:1015F000087000E0ECE7FFE704A8007800280AD1B3
:10160000FFE7D6490868032212029043079AD2697D
:101610001043086003E0049803A90870FFE702A8DC
:101620000078012807D1FFE7344908680122120732
:1016300090430860FFE7FFE707980078C00700289D
:1016400009D0FFE72E49086803229043079A926861
:1016500010430860FFE707980078800700280AD544
:10166000FFE727490868032212039043079AD268CC
:1016700010430860FFE707980078800600280AD525
:10168000FFE71F490868032292079043079A92696F
:1016900010430860FFE707980078000700280AD584
:1016A000FFE718490868012212039043079A52691C
:1016B00010430860FFE707980078400700280AD524
:1016C000FFE70F490868032292039043079A1269C3
:1016D00010430860FFE7079800780006002809D546
:1016E000FFE7D0490868E0229043079A5268104308
:1016F0000860FFE703A8007808B080BD3C100240F6
:10170000541002405810024080B584B002900191FC
:101710000298002804D1FFE703A90120087017E10F
:1017200001988D49096807221140884221D9FFE7B5
:101730008949086807229043019A10430860FFF71F
:1017400073F90090FFE78448006807210840019979
:1017500088420DD0FFE7FFF767F90099401A8449E6
:10176000884204D3FFE703A903200870F0E0EAE70A
:10177000FFE702980078800700281AD5FFE7029853
:101780000078400700280AD5FFE7A74908680B2220
:10179000120210430722120390430860FFE7A24998
:1017A00008680F2212029043029AD2681043086020
:1017B000FFE702980078C00700287AD0FFE7994930
:1017C00008681C229043029A9268104308600298AD
:1017D000406801280BD1FFE7924800688003002889
:1017E00004D4FFE703A901200870B1E03DE00298AE
:1017F000406800280BD1FFE78A48006840050028B0
:1018000004D4FFE703A901200870A1E02CE00298AE
:10181000406802280BD1FFE78248006800020028D8
:1018200004D4FFE703A90120087091E01BE00298AF
:10183000406803280BD1FFE749480068800700286B
:1018400004D4FFE703A90120087081E00AE04348BF
:1018500000688007002804D4FFE703A9012008706E
:1018600076E0FFE7FFE7FFE7FFE76F490868072239
:101870009043029A526810430860FFF7D5F8009031
:10188000FFE7694800683821084002994968C900A3
:1018900088420DD0FFE7FFF7C7F80099401A344996
:1018A000884204D3FFE703A90320087050E0E8E76B
:1018B000FFE701982849096807221140884221D290
:1018C000FFE72549086807229043019A1043086002
:1018D000FFF7AAF80090FFE71F48006807210840BB
:1018E000019988420DD0FFE7FFF79EF80099401A52
:1018F0001F49884204D3FFE703A90320087027E0AB
:10190000EAE7FFE702980078400700280AD5FFE7DA
:1019100045490868072212039043029A126910434E
:101920000860FFE700F026F83F4909680F2212021D
:1019300011408A090B4989581F221140C8400A49A1
:1019400008600A480068FFF761FC03A90870FFE718
:1019500003A8007804B080BD002002405C10024063
:1019600060100240C855000800000020340000202C
:101970008913000080B584B02A4800681C21084003
:101980008008401C0190284800688006400F00280D
:101990000FD1FFE7234800680721C9020840C10AA8
:1019A00001208840039003992048FEF727FC02900D
:1019B00030E01D48006838210840082803D1FFE7BF
:1019C0001B48029025E0184800683821084020286C
:1019D00004D1FFE70120C003029019E0124800681B
:1019E00038210840182804D1FFE77D20000202902A
:1019F0000DE00D48006838210840102803D1FFE7AA
:101A00000A48029002E000200290FFE7FFE7FFE7AC
:101A1000FFE7FFE702980199FEF7F0FB02900298BA
:101A200004B080BD0010024008100240006CDC02CF
:101A300000127A0080B586B004900498002804D182
:101A4000FFE705A9012008703BE204980078C00771
:101A5000002876D0FFE7F948006838210840029056
:101A6000029808280AD1FFE704984068002804D1AA
:101A7000FFE705A90120087023E261E0FFE7049871
:101A8000406801210904884207D1FFE7EC49086852
:101A900001221204104308601DE0049840680521EB
:101AA000090488420BD1FFE7E54908680122930445
:101AB0001843086008681204104308600AE0E0490F
:101AC0000868012213049843086008689204904350
:101AD0000860FFE7FFE7FFE704984068002817D099
:101AE000FFE7FEF7A1FF0390FFE7F94800688003D6
:101AF00000280CD4FFE7FEF797FF0399401A6528EA
:101B000004D3FFE705A903200870DAE1EDE716E04A
:101B1000FEF78AFF0390FFE7ED4800688003002886
:101B20000CD5FFE7FEF780FF0399401A652804D320
:101B3000FFE705A903200870C3E1EDE7FFE7FFE732
:101B4000FFE7049800788007002800D490E0DF4881
:101B500000683821084002900298002835D1FFE73C
:101B60000498C068002804D1FFE705A90120087087
:101B7000A7E1D84908687F2212029043049A52696B
:101B80001202104308600298002811D1FFE7D048E4
:101B900002680721C9028A43049B1B691A43026039
:101BA00000680840C10ACC48C840CC490860FFE73B
:101BB000CB480068FFF72AFB002804D0FFE705A9FF
:101BC000012008707DE1FFE751E00498C06800281B
:101BD0002FD0FFE7BE4908680722D2029043049A3B
:101BE000126910430860086801221202104308605D
:101BF000FEF71AFF0390FFE7B5480068400500288C
:101C00000CD4FFE7FEF710FF0399401A032804D312
:101C1000FFE705A90320087053E1EDE7AD49086827
:101C20007F2212029043049A526912021043086004
:101C30001CE0A74908680122120290430860FEF7E1
:101C4000F3FE0390FFE7A2480068400500280CD58A
:101C5000FFE7FEF7E9FE0399401A032804D3FFE7E4
:101C600005A9032008702CE1EDE7FFE7FFE7FFE798
:101C7000049800780007002850D5FFE793480068D3
:101C80003821084018280AD1FFE704988069002805
:101C900004D1FFE705A90120087012E13DE0049896
:101CA000806900281CD0FFE78E4908680122104394
:101CB0000860FEF7B9FE0390FFE78A4800688007D6
:101CC00000280CD4FFE7FEF7AFFE0399401A032863
:101CD00004D3FFE705A903200870F2E0EDE71BE05D
:101CE00080490868012290430860FEF79DFE03903A
:101CF000FFE77C480068800700280CD5FFE7FEF767
:101D000093FE0399401A032804D3FFE705A9032093
:101D10000870D6E0EDE7FFE7FFE7FFE704980078FB
:101D2000400700287ED5FFE701A90020087067481A
:101D300000683821084020280AD1FFE7049880680D
:101D4000002804D1FFE705A901200870B9E068E088
:101D5000FFE704988068012806D1FFE76249086818
:101D600001221043086019E00498806805280AD110
:101D7000FFE75D49086804221043086008680122F3
:101D80001043086009E05849086801229043086040
:101D90000868042290430860FFE7FFE7FFE7049824
:101DA0008068002818D0FFE7FEF73EFE0390FFE7AB
:101DB0004D480068800700280DD4FFE7FEF734FE89
:101DC0000399401A4949884204D3FFE705A9032033
:101DD000087076E0ECE717E0FEF726FE0390FFE7D9
:101DE00041480068800700280DD5FFE7FEF71CFE7C
:101DF0000399401A3D49884204D3FFE705A903200F
:101E000008705EE0ECE7FFE701A80078012807D141
:101E1000FFE7374908680122120790430860FFE78F
:101E2000FFE7FFE704980078C006002845D5FFE7E4
:101E30000498C069002822D004E0C046081002407F
:101E400000100240224908680122920510430860F0
:101E5000FEF7EAFD0390FFE71D4800680002002836
:101E60000CD4FFE7FEF7E0FD0399401A032804D3E2
:101E7000FFE705A90320087023E0EDE71CE0144903
:101E800008680122920590430860FEF7CDFD03909B
:101E9000FFE70F480068000200280CD5FFE7FEF7B7
:101EA000C3FD0399401A032804D3FFE705A90320C3
:101EB000087006E0EDE7FFE7FFE705A900200870DE
:101EC000FFE705A8007806B080BDC04608100240B4
:101ED0000010024004100240006CDC0200000020F0
:101EE00034000020601002405C10024089130000A2
:101EF0003C10024080B582B00190019800F0CAFF0A
:101F000002B080BD81B0009001B0704781B00090F8
:101F100001B0704781B0009001B0704785B0039068
:101F20000291FFE703983C21405C012804D1FFE7C0
:101F300004A9022008705EE003993C220120885425
:101F4000FFE7FFE703993D220220885403980068C9
:101F500040680190039800688068009003980068CA
:101F60008C4988420BD1FFE701980F21090588436E
:101F7000019002984168019808430190FFE7019899
:101F800070218843019002980168019808430190EC
:101F90000198039909684860039800687D49884260
:101FA0000DD0FFE70398006801218907884206D019
:101FB000FFE703980068784988420ED1FFE7009850
:101FC000802188430090029881680098084300901F
:101FD0000098039909688860FFE703993D22012072
:101FE0008854FFE703993C2200208854FFE704A9A6
:101FF00000200870FFE704A8007805B07047C046CD
:1020000080B582B000900098002804D1FFE701A9B4
:102010000120087045E000983D21405C002808D16F
:10202000FFE700993C2200208854009800F03EF819
:10203000FFE700993D2202208854009901C901F070
:10204000D1F80099482201208854FFE700993E22E8
:102050000120885400993F228854009940228854D6
:1020600000994122885400994222885400994322C1
:102070008854FFE7FFE70099442201208854009923
:102080004522885400994622885400994722885452
:10209000FFE700993D220120885401A90020087023
:1020A000FFE701A8007802B080BD000080B584B0D1
:1020B0000390039800683749884216D1FFE7FFE78D
:1020C0000B4802680121C9020A4302600068084007
:1020D00002900298FFE70D20019000221146FFF7C1
:1020E000FEF80198FFF7F0F8FFE704B080BDC046A6
:1020F0004010024083B0019001983D21405C0128CE
:1021000004D0FFE702A9012008703FE001993D22B9
:102110000220885401980168C86801221043C860F1
:10212000019800681B4988420DD0FFE701980068BC
:1021300001218907884206D0FFE701980068164907
:10214000884218D1FFE70198006880681349084069
:102150000090009806280DD0FFE70098012109049F
:10216000884207D0FFE70198016808680122104300
:102170000860FFE706E00198016808680122104343
:102180000860FFE702A900200870FFE702A80078B6
:1021900003B07047002C014000040040070001001C
:1021A00080B586B00490039102A900200870FFE773
:1021B00004983C21405C012804D1FFE705A90220D6
:1021C0000870AEE004993C2201208854FFE7FFE745
:1021D00004993D2202208854049800688068019088
:1021E00001985249084001900198FF210902884353
:1021F000019001980499096888600398006800902C
:10220000002875D0FFE70098102871D0FFE70098EC
:1022100020286DD0FFE70098302869D0FFE70098AC
:10222000402858D0FFE7009850283AD0FFE70098A0
:10223000602843D0FFE7009870280DD0FFE7009892
:1022400001210903884206D0FFE7009801214903D4
:10225000884216D053E056E004980068039B9968C2
:102260005A68DB6801F042F80498006880680190C1
:1022700001987721084301900198049909688860C2
:1022800041E004980068039B99685A68DB6801F094
:102290002DF8049801688868012292031043886031
:1022A00031E004980068039A5168D26801F052F84E
:1022B00004980068502101F035F824E00498006883
:1022C000039A5168D26801F06DF8049800686021A3
:1022D00001F028F817E004980068039A5168D26862
:1022E00001F038F804980068402101F01BF80AE07A
:1022F000049800680399096801F014F803E002A942
:1023000001200870FFE704993D2201208854FFE76F
:1023100004993C2200208854FFE7029805A9087020
:10232000FFE705A8007806B080BDC04688FFCEFF55
:1023300081B0009001B0704780B584B003900398DD
:102340000068C0680290039800680069019001A8C5
:1023500000788007002825D5FFE702A800788007CD
:1023600000281ED5FFE7039801680220C0430861DA
:102370000399012008770398006880698007002886
:1023800004D0FFE70398FFF7D3FF06E0039800F0BF
:1023900005F9039800F006F9FFE703990020087794
:1023A000FFE7FFE701A800784007002826D5FFE7F0
:1023B00002A80078400700281FD5FFE703980168AE
:1023C0000420C0430861039902200877039800683D
:1023D00080698005800F002804D0FFE70398FFF78D
:1023E000A7FF06E0039800F0D9F8039800F0DAF8A8
:1023F000FFE7039900200877FFE7FFE701A80078CF
:102400000007002825D5FFE702A80078000700286C
:102410001ED5FFE7039801680820C04308610399AF
:102420000420087703980068C0698007002804D05A
:10243000FFE70398FFF77CFF06E0039800F0AEF893
:10244000039800F0AFF8FFE7039900200877FFE753
:10245000FFE701A80078C006002826D5FFE702A8FC
:102460000078C00600281FD5FFE7039801681020F8
:10247000C043086103990820087703980068C06981
:102480008005800F002804D0FFE70398FFF750FF76
:1024900006E0039800F082F8039800F083F8FFE765
:1024A000039900200877FFE7FFE701A80078C0073D
:1024B000002810D0FFE702A80078C007002809D044
:1024C000FFE7039801680120C0430861039800F00A
:1024D0006DF8FFE7FFE7019880210840802806D0CB
:1024E000FFE701A84078800600280FD5FFE702A883
:1024F00000780006002808D5FFE703980168254802
:1025000008610398FFF702FDFFE7FFE701A84078A5
:10251000C00700280FD0FFE702A8007800060028B7
:1025200008D5FFE7039801681B4808610398FFF787
:10253000E9FCFFE7FFE701A800784006002810D576
:10254000FFE702A800784006002809D5FFE70398B6
:1025500001684020C0430861039800F02BF8FFE7B2
:10256000FFE701A800788006002810D5FFE702A841
:1025700000788006002809D5FFE70398016820202D
:10258000C04308610398FFF7C5FCFFE7FFE704B00D
:1025900080BDC0467FDFFFFFFFFEFFFF81B00090E0
:1025A00001B0704781B0009001B0704781B00090D9
:1025B00001B0704781B0009001B07047FFE7FEE7BF
:1025C00081B00090009800688069022108404008AE
:1025D000002805D0FFE70098016800208862FFE727
:1025E000009800688069C007002807D1FFE70098BD
:1025F00001688869012210438861FFE701B07047D4
:1026000080B58AB009900891079206A90020087049
:10261000099909688969059104900798039005A8AC
:102620000078C006002800D484E0099801681020D2
:10263000C861FFE7099800688069202108404109C6
:1026400000200029009006D1FFE706A8007841424B
:1026500048410090FFE70098C007002858D0FFE7E6
:102660000898401C002852D0FFE7FEF7DDF90399D7
:10267000401A0899884204D8FFE70898002845D1F5
:10268000FFE709980068406801218903084002902B
:1026900009984221405C01A9087009980068806986
:1026A00080B2C00B002816D0FFE7029801218903F1
:1026B000884210D0FFE701A8007820280BD0FFE760
:1026C0000998016848680122920310434860FEF7A8
:1026D000ABF90390FFE7FFE70998006880692021C4
:1026E00008404009002810D1FFE7FEF79DF9039943
:1026F000401A1A2808D3FFE70498202108430490C1
:1027000006A90120087000E0E6E7FFE7FFE791E790
:1027100006A80078002805D1FFE709980168202065
:10272000C861FFE7049804210843049006A901202A
:102730000870FFE7099800688069059005A840784F
:10274000C00700280BD0FFE7049901200143049142
:1027500009990A680102D16106A90870FFE705A876
:102760004078400700280CD5FFE70498082108436B
:1027700004900998026801208102D16106A90870BD
:10278000FFE705A84078800700280CD5FFE70498EC
:102790000221084304900998026801204102D16196
:1027A00006A90870FFE706A8007800281DD0FFE7FB
:1027B0000998FFF705FF099801684868AA4A104080
:1027C0004860049A0999486C104348640999412269
:1027D000202088540999422200208854FFE7099953
:1027E000402200208854FFE7FFE706A800780AB0DF
:1027F00080BDC04610B585B0079C049003A8018039
:1028000002A90A70019300880D4A10400978090452
:10281000401801990843079908430121C9078843D3
:1028200000900498006840680799490D884305495D
:1028300008400099084304990968486005B010BD34
:10284000FF030000009C00FC10B586B0089C0490BB
:10285000039102A802700193FFE704980068806961
:1028600003990840401A4142484102A90978884228
:1028700043D1FFE704980199089AFFF7C1FE0028A9
:1028800004D0FFE705A9012008703AE00198401C38
:10289000002831D0FFE7FEF7C7F80899401A0199E0
:1028A000884204D8FFE70198002824D1FFE7049864
:1028B0000068806903990840401A4142484102A9D2
:1028C0000978884216D1FFE7049A516C2020014311
:1028D000516404994122885404994222002088546A
:1028E000FFE70499402200208854FFE705A9012052
:1028F000087006E0FFE7FFE7AFE705A900200870D2
:10290000FFE705A8007806B010BD000080B586B0CE
:1029100005900491039202A900200870FFE7059832
:102920000068806904210840810800200029019086
:1029300006D1FFE702A80078414248410190FFE735
:102940000198C007002800D189E005980499039AEE
:10295000FFF756FE002804D0FFE702A90120087007
:10296000FFE7059800688069202108404009012898
:1029700047D1FFE702A80078002842D1FFE7059879
:1029800000688069042108408008012809D1FFE718
:102990000598008D002804D0FFE702A900200870E8
:1029A000FFE70598006880691021084000090128A8
:1029B00022D1FFE7059801681020C861059904201D
:1029C0004864059801682020C86105990A68516823
:1029D000254B19405160059941228854059942229E
:1029E00000208854FFE70599402200208854FFE723
:1029F00002A90120087003E0059900204864FFE760
:102A0000FFE7FEF711F80399401A0499884204D8A9
:102A1000FFE70498002821D1FFE702A800780028EA
:102A20001CD1FFE7059800688069042108408008F0
:102A3000002812D1FFE7059A516C20200143516410
:102A4000059941228854FFE70599402200208854C7
:102A5000FFE702A901200870FFE7FFE75FE702A890
:102A6000007806B080BDC04600E800FE80B584B0A6
:102A7000029001910092FFE702980068806920218E
:102A800008404009002839D1FFE702980199009ACF
:102A9000FFF7B6FD002804D0FFE703A90120087066
:102AA00030E0FDF7C1FF0099401A0199884204D82F
:102AB000FFE70198002820D1FFE7029800688069AD
:102AC000202108404009002816D1FFE7029A516CE6
:102AD00020200143516402994122885402994222E4
:102AE00000208854FFE70299402200208854FFE725
:102AF00003A90120087005E0FFE7BDE703A9002056
:102B00000870FFE703A8007804B080BD80B584B0EA
:102B1000029001910092FFE702980068806902210B
:102B20000840400800283FD1FFE702980199009A29
:102B3000FFF766FD002804D0FFE703A90120087015
:102B400036E00198401C00282DD0FFE7FDF76CFF10
:102B50000099401A0199884204D8FFE7019800289B
:102B600020D1FFE7029800688069022108404008F0
:102B7000002816D1FFE7029A516C202001435164CE
:102B80000299412288540299422200208854FFE78A
:102B90000299402200208854FFE703A90120087011
:102BA00006E0FFE7FFE7B7E703A900200870FFE7AB
:102BB00003A8007804B080BD82B0FFE70B4802682C
:102BC00001210A4302600068084001900198FFE774
:102BD000FFE70648026802210A43026000680840D5
:102BE00000900098FFE702B07047C04634100240E2
:102BF00080B582B0164801901649016030494160A5
:102C0000002181600122C260016141618161C16175
:102C10000162FDF7ABFF002803D0FFE7FDF761FD80
:102C2000FFE70B480021FDF705FF002803D0FFE771
:102C3000FDF757FDFFE706480021FDF746FF002896
:102C400003D0FFE7FDF74DFDFFE702B080BDC046B2
:102C5000BC0500200054004080B582B016480190A9
:102C60001649016016494160002181600122C2605D
:102C7000016141618161C1610162FDF777FF002857
:102C800003D0FFE7FDF72DFDFFE70B480021FDF71F
:102C9000D1FE002803D0FFE7FDF723FDFFE706483C
:102CA0000021FDF712FF002803D0FFE7FDF719FD13
:102CB000FFE702B080BDC04610060020005800406B
:102CC0004B19900080B58AB00021019109910891BB
:102CD0000791069105910491039118480290184AB2
:102CE0000260184A42608160174AC2600161416116
:102CF0008161FFF785F9002803D0FFE7FDF7F1FCBC
:102D0000FFE70120000306900C4806A9FFF748FAE8
:102D1000002803D0FFE7FDF7E4FCFFE70020039065
:102D200004900590054803A9FFF7F8F8002803D0A0
:102D3000FFE7FDF7D6FCFFE70AB080BD440900209D
:102D4000002C0140BF120000E7030000F0B595B071
:102D50000023139332480A900A98012149021A4627
:102D600002F01BFB002803D0FFE7FF20149054E083
:102D7000012010A900F0B6FF129000200FA900F06A
:102D8000B1FF11900EA801F051F80C900DA801F0C0
:102D900031F80B90129809901099119A0F9B0C9C86
:102DA0000E9D0B9E0D9F1F48049009980397029655
:102DB0000195009401F026FC002803D0FFE7FF20D6
:102DC00014902AE01849089118480860184848608B
:102DD00018488860022006900021059100F076FFD7
:102DE000059902460698144B07931A6000F0C2FF3B
:102DF000079A0346089811490B6012680B68009007
:102E00000F48104901F0AEFB002803D0FFE7FF2078
:102E1000149002E013981490FFE7149815B0F0BDD9
:102E20009C09002011340008B0050020F933000887
:102E30000134000809340008A8050020AC05002072
:102E4000100000207542000880B582B00D48019046
:102E50000D490160082101710221C17141720021F7
:102E60008172C172017341738173C1730174FEF782
:102E70005FFA002803D0FFE7FDF733FCFFE702B05D
:102E800080BDC04664060020005C0040FFE7FEE70E
:102E90007047704780B584B002900298401E000EC3
:102EA000002803D0FFE70120039011E00298401EA4
:102EB0000949086000200190C043032101F090F807
:102EC000019806490860064A072111600390FFE750
:102ED000039804B080BDC04614E000E018E000E0B4
:102EE00010E000E080B5FEF771F980BD10B58EB03E
:102EF000002100910D910C910B910A91099108917B
:102F00000791069105910491039102910191164B4D
:102F10001A68012002430624A2431A601222069274
:102F2000020209920A9140210B9180050D9006A89A
:102F3000FEF780FD002803D0FFE7FDF7D2FBFFE797
:102F4000072001900020029003900490059001A8B2
:102F50000121FEF7D9FB002803D0FFE7FDF7C1FBF5
:102F6000FFE70EB010BDC046002002400120C006A1
:102F7000014908607047C04608ED00E080B594B094
:102F8000139012911192109313980CA9079100912C
:102F90000FA90EAA0DAB00F08BF807980088002847
:102FA00008D1FFE712990020087011990870109954
:102FB000087065E00FA80088FDF7DCFA03900CA804
:102FC00005900088FDF7CEFA01460398FDF7D0F989
:102FD0000B900EA80088FDF7CDFA014605980491E4
:102FE0000088FDF7BFFA01460498FDF7C1F90A9081
:102FF0000DA80088FDF7BEFA0146059806910088E5
:10300000FDF7B0FA01460698FDF7B2F909900B9862
:1030100008900A98089902F027FA002803D1FFE7E0
:103020000A980890FFE70998089902F01DFA00280D
:1030300003D1FFE709980890FFE70B980899FDF77F
:1030400097F91049029102F047FAFDF741FA1299F7
:1030500008700A980899FDF78BF9029902F03CFA7A
:10306000FDF736FA1199087009980899FDF780F96B
:10307000029902F031FAFDF72BFA10990870FFE778
:1030800014B080BD00007F4380B582B001900198EC
:103090000021032200F084F801980121D52200F0DC
:1030A0007FF801980F21022200F07AF802B080BD6B
:1030B00010B588B00A9C0790069105920493079872
:1030C000142100F04CF803A901910870079815210C
:1030D00000F045F8019902AA0092107002980002CF
:1030E000097840180A9908800798162100F037F8E7
:1030F000019908700798172100F031F8009A01999A
:103100001070029800020978401806990880079804
:10311000182100F024F8019908700798192100F08F
:103120001EF8009A01991070029800020978401860
:103130000599088007981A2100F011F80199087084
:1031400007981B2100F00BF8009A01991070029863
:103150000002097840180499088008B010BD80B5B5
:103160008AB0099008A8017008988021084306AA2F
:10317000107009986421029100915221039101235A
:103180000493FDF783FE029A0399049B0998009229
:1031900007AA0592FDF77AFD059800780AB080BD70
:1031A00080B586B0059004A8017003A80270049849
:1031B0008021084302AA107003985070059864217A
:1031C000009152210223FDF761FE06B080BD000090
:1031D00080B502F045F90248FFF7AEF880BDC04661
:1031E0004409002083B00290019102980068009089
:1031F0000298394988420BD0FFE7029801218907DC
:10320000884205D0FFE70298344988420AD1FFE797
:103210000098702188430090019841680098084305
:103220000090FFE702982C4988421AD0FFE70298E5
:1032300001218907884214D0FFE702982749884274
:103240000FD0FFE70298264988420AD0FFE702988C
:103250002449884205D0FFE70298234988420BD1D0
:10326000FFE7009803210902884300900198C16894
:10327000009808430090FFE7009880218843019957
:10328000496908430090019880680299C8620198D2
:1032900000680299886202980F4988420AD0FFE7C5
:1032A00002981049884205D0FFE702980E498842EB
:1032B00005D1FFE70198006902990863FFE70299C9
:1032C00008680422104308600299012048610098B0
:1032D0000299086003B07047002C014000040040D0
:1032E00000200040004401400048014085B00490A7
:1032F0000391029201930498806800900098FF2146
:1033000009028843009003990298019A120210431F
:10331000014300980843009000980499886005B024
:103320007047000083B0029001910298806800907D
:103330000098074908400090019800990843072128
:103340000843009000980299886003B07047C04617
:103350008FFFCFFF85B00490039102920498006A1A
:1033600000900499086A01229043086204988069D9
:1033700001900198F0218843019002980101019881
:103380000843019000980A2188430090039900980F
:103390000843009001980499886100980499086294
:1033A00005B0704785B00490039102920498006ABA
:1033B00000900499086A102290430862049880697A
:1033C000019001980F21090388430190029801039D
:1033D0000198084301900098A02188430090039829
:1033E00001010098084300900198049988610098B1
:1033F0000499086205B0704781B0009001B0704731
:1034000081B0009001B0704781B0009001B070476A
:1034100083B002900020019002980090012818D0FB
:10342000FFE700980A2815D0FFE70098F02816D08B
:10343000FFE70098F1280ED0FFE70098F2280BD0A4
:10344000FFE70098F32809D0FFE70098F42804D09C
:1034500006E006E005E004E003E002E001E000E051
:10346000FFE7019803B0704783B0029001A90020E4
:10347000087002980090FFE700980078002808D0B4
:10348000FFE70198401C01A908700098401C0090BB
:10349000F2E701A8007803B0704710B586B0059038
:1034A0000491039202A9002008700598002801D118
:1034B000FFE720E0059801900198FFF7D5FF0399F9
:1034C000088003980078049902AC2278531C23707A
:1034D0008854FFE70198007800280CD0FFE7019896
:1034E0000078049902AC2278531C23708854019808
:1034F000401C0190EEE706B010BD0000F0B589B0A9
:1035000008900791069205A8037004A9002502956A
:103510000D700899492292008D5008990922530193
:10352000CD500799594A03921160146812212170F5
:1035300014680121617016680224F470B570166871
:103540003571166875711668B57117684026FE7179
:10355000176804267E7283263E7217685726FE720D
:103560001026BE721668747335731568A9731568D2
:10357000EC73156803242C7412685174089AD1589E
:103580001231D1500078012827D1FFE70798089918
:1035900009225201895840183D49019108600B6881
:1035A0000A2018700B68062058700B680220D8702B
:1035B000002098700B6818710B6858710B6898712F
:1035C0000C684023E3710C68012323720968487278
:1035D000089988580A308850FFE7FFE704A8007868
:1035E00002282FD8FFE708984068022825D8FFE76F
:1035F00008988068022820D8FFE7069804A909786F
:10360000405C002819D0FFE70898069904AA1278B0
:10361000895C05AA1378079A0924640104591219D0
:103620000092002200F036F808994868401C486073
:1036300008998868401C8860FFE70498401C04A92A
:103640000870CBE70898806802280BD3FFE70F4883
:103650000268EF2111710268022151710168012095
:1036600088710FE00698007802280AD1FFE7074822
:10367000026802211171026851710168002088718D
:10368000FFE7FFE7079809B0F0BDC04650030020F0
:103690005403002010B586B0089C049003A8017064
:1036A00002A8027001A803700498406802282BD871
:1036B000FFE7049842685C21514340188069002864
:1036C00022D1FFE7049948685C2213464343C91896
:1036D00008610498436811465943411801208861E4
:1036E000039804994B685A4389180873049801A9F0
:1036F0000978089A00F032F8002804D0FFE705A9FD
:10370000FF20087004E0FFE705A900200870FFE72C
:1037100005A8007806B010BD83B002900191029810
:1037200000900099092008700099022048700099C3
:103730000020C870887000990871009A01215171A9
:10374000009988710099C020C871009919200872E9
:10375000019908680930086003B0704710B58AB055
:10376000099008A80170079206A90020087008981F
:103770000999087009984068002808D1FFE7079860
:103780000999492292008918FFF7C6FFFFE70998B7
:1037900042685C2151434018007B02285ED1FFE75C
:1037A000099800F069FA06A90870099843685C2135
:1037B0000A465A438218022010620698099A5468F1
:1037C0000B466343D2185A23D0540698401C099ADA
:1037D00054680B466343D2185B23D054099842685F
:1037E000514341180320C86108A80078012817D167
:1037F000FFE7099801214B0204930321059102225E
:10380000039200F02FF8039A049B0998822100F09C
:1038100029F8059A09988121082300F023F815E07A
:10382000099803210291022200924023019300F0A3
:1038300019F8009A019B0998822100F013F8029A66
:1038400009988121082300F00DF8FFE709980799EE
:1038500049229200821800F065F800E0FFE700209E
:103860000AB010BDB0B586B0059004A8017003A8D9
:103870000270029300200190FFE7019905984368C8
:103880005C225A438018C2690020914200900FD2F6
:10389000FFE7059842685C2151434018019A0621D0
:1038A000514340182821405C411E88410090FFE7A9
:1038B0000098C007002804D0FFE70198401C019041
:1038C000DBE7049805994C685C2213466343CB18E8
:1038D000019D06210C466C431B192424185503989E
:1038E000059B5D6814466C431B19019D0C466C4397
:1038F0001B19252418550298059B5D6814466C43D6
:103900001B19019D0C466C431B19D884059843680C
:103910005A438018019A51434118282201208854A3
:1039200006B0B0BD70B586B00590049103920498BE
:10393000039909684118C94802900160026808218A
:10394000117002680B21517005994B685C225A4333
:1039500089185A22895C0268917002680221D1702C
:103960000268117102685171026801219171016848
:103970000020C8710399086808300860FFE70498C0
:10398000039909684018B649019108600A6809203E
:1039900010700A6804205070059843685C225A43EE
:1039A00080185A22805C0A6890700A680020D070E3
:1039B0000B6801221A710C68022363710C68A371F1
:1039C0000B68DA71096808720399086809300860A1
:1039D000FFE70498039909684018A24A106010682C
:1039E0000524047011682420487013680021997020
:1039F000156801222A711023EB70039D2B685B1D53
:103A00002B60049B039D2D685B19974D2B602B68E1
:103A10001C702B6858702B689A702A68D1700599B1
:103A20004E685C231A46724389185B22895C2D68B4
:103A30002971039D2968491D29600499039D2D68FA
:103A400049198A4D29602E6804213170296848700F
:103A50002E680221B1702D68E970039D2968091D47
:103A600029600499039D2D684D1981490D600D68E9
:103A70002C700C6860700C680620A0700598456872
:103A80001C466C4300195A24005D0C68E0700598D0
:103A900044686343C018805C09680871039908682A
:103AA000401D0860FFE704980399096840187149B0
:103AB00008600A68072010700A6805205070059891
:103AC00044685C2213466343C0183023C05C0B6813
:103AD00098700B680320D870059843685A43801883
:103AE000408E09680871000A48710598007801281D
:103AF00005D1FFE75F4801680520887104E05D4853
:103B0000016805208871FFE703990868C01D0860F7
:103B1000FFE7FFE7049803990968401850490091AE
:103B200008600A68092010700A680420507005981F
:103B300043685C225A4380185B22805C0A6890705C
:103B40000A680020D0700B6802221A710B680A22E2
:103B50005A710A6890710A68D071096808720399ED
:103B6000086809300860FFE7FFE7049803990968CF
:103B70004018404908600A68072010700A6805204C
:103B80005070059844685C2213466343C018242390
:103B9000C05C0B6898700B680220D8700598436869
:103BA0005A438018C08C09680871000A487105984A
:103BB0000078012805D1FFE72E48016800208871B0
:103BC00004E02C48016800208871FFE70399086829
:103BD000C01D0860FFE7FFE70498039909684018D3
:103BE000244908600A68072010700A680520507090
:103BF000059844685C2213466343C0182A23C05CBE
:103C00000B6898700B680220D870059843685A4377
:103C10008018808D09680871000A4871059800783D
:103C2000012805D1FFE7134801680020887104E0EE
:103C30001048016800208871FFE703990868C01DDB
:103C40000860FFE704990879801C087103980068F0
:103C500004998870000AC87006B070BD90040020F6
:103C6000940400208C0400208404002080040020A0
:103C7000980400208804002084B003900020029063
:103C80000190FFE701980399896888421AD2FFE7FB
:103C900000200090FFE700980399019B5C225A43A3
:103CA0008918096A884208D2FFE70298401C0290EE
:103CB000FFE70098401C0090EDE7FFE70198401CEB
:103CC0000190DFE702A8007804B0704783B002AA31
:103CD000107001A80170684601210170007803B0DE
:103CE0007047000080B588B0024607A802700691B0
:103CF000002105910078002818D1FFE71C480490A6
:103D0000016807A803783A480390184AFFF7F6FBC2
:103D1000039A049809214901515849239B00D2581C
:103D20008918069A11600068059017E00D48029006
:103D3000016807A803780C4801900C4AFFF7DEFBE6
:103D4000019A029809214901515849239B00D258F0
:103D50008918069A116000680590FFE7059808B079
:103D600080BDC0462C000020580300200400002025
:103D70002800002084B003AA107002A8017001A9D5
:103D800000200870694608700870FFE768460078F0
:103D9000022829D8FFE7684600785C21414314488F
:103DA0004018007B03A90978884217D1FFE76846CD
:103DB00000785C2141430E484018007D02A9097833
:103DC00088420BD1FFE7684600785C2141430848F0
:103DD00040185A21405C01A90870FFE7FFE70098EE
:103DE000401C69460870D1E701A8007804B070470C
:103DF0002802002080B584B0039002AB0020187028
:103E00001A78501C187008480190092181541A78BA
:103E1000511C197004218154FCF7CEF90146019818
:103E2000039A116004B080BD9C04002070B588B076
:103E3000079006AA03920020108005A9029108703D
:103E40000B78581C0870294804900924C4540D7834
:103E50006B1C0B700423019343550D786B1C0B7086
:103E600001234355097841182148FFF716FB019BB0
:103E70000299039A0498069D059EAD196D1C0D705C
:103E80000D786E1C0E7044550D786E1C0E704355E7
:103E90000D786B1C0B7002234355097841181548A7
:103EA000FFF7FBFA019B0299039A0498069D059E71
:103EB000AD196D1C0D700D786E1C0E7044550C788C
:103EC000651C0D7003550C78631C0B7003230355A0
:103ED000097841180848FFF7E0FA0498FCF76CF9F4
:103EE00001460498079A116008B070BDA004002034
:103EF000265600081556000808560008B0B58CB0C4
:103F0000109C0794069305920491079908AA1173CF
:103F100006990A91059909910499089103900398CB
:103F2000012202640399086C9043086403980021FD
:103F3000019100F017F80199024602A80270039A55
:103F4000516400780CB0B0BD82B00190044800907C
:103F5000009A0199086C90430864002002B07047F1
:103F600080BF000083B0019068460170007800288F
:103F700007D1FFE70199086C0122D207904308643A
:103F800010E068460078012807D1FFE70199086C26
:103F90000122D2071043086403E002A9012008703F
:103FA00004E0FFE702A900200870FFE702A80078FC
:103FB00003B0704781B00146684601700021405649
:103FC000002809D4FFE7684601781F20014001203E
:103FD000884002490860FFE701B0704700E100E057
:103FE00070B582B0024601A80270009100214056CF
:103FF000002816D4FFE7002401A908570322D34361
:104000001840174A805809578C07E50EFF24AC402A
:10401000A043009CA401E4B2AC4020431940885066
:104020001AE001A908780F24204008380322D3435E
:1040300018400A4A8058002549578D07EE0EFF2583
:10404000B540A843009DAD01EDB2B54028432140E5
:10405000083919408850FFE702B070BD1CED00E040
:1040600000E400E080B584B003900398006A0190FA
:104070000198806C009003988068029000980299E3
:10408000886002980099086000984068002804D071
:10409000FFE7009841688847FFE7002004B080BD33
:1040A00080B58CB00A900A98006A08900898806CD5
:1040B00009904F48006824300690069838300790E1
:1040C00007983D21405C059007983E3001F01EF9AD
:1040D00004900798423001F019F903900398029078
:1040E00005980190202857D0FFE7019821282BD070
:1040F000FFE70198222871D1FFE709994B220020A0
:10410000885409994C22885404A80078C0070028D4
:1041100005D0FFE709994B2201208854FFE704A846
:1041200000788007002805D5FFE709994C22012077
:104130008854FFE70998C068002804D0FFE7099871
:10414000C1688847FFE74CE00398082803D3FFE7DE
:1041500007200290FFE70798C0680999496C00F0B2
:1041600006FE09984821405C0799C96808710998BA
:104170004921405C0799C968487109984A21405C07
:104180000799C9688871079903208862079802997E
:10419000039A00F027FC24E00798C06800F0C7FDF0
:1041A000099948640798C068007909994822885499
:1041B0000798C06840790999492288540798C068CF
:1041C000807909994A2288540998C068002804D047
:1041D000FFE70998C1688847FFE702E0FF200B90DE
:1041E00002E000200B90FFE70B980CB080BDC046AA
:1041F000A405002080B588B007900798006A059054
:104200000598806C04900498006806900698C06930
:1042100003900398807B80210840802806D0FFE728
:104220000398029002984069039003E00398406964
:104230000290FFE703982621019100F0C5FB019948
:10424000029800F0C1FB04980721002200F09CF8BE
:1042500004988068002804D0FFE7049881688847A4
:10426000FFE704994B220020885404994C2288547B
:1042700008B080BD80B584B0029002980068401EEE
:104280000090062840D80098810001A04058874639
:10429000C9420008DF420008ED420008FB42000866
:1042A000AD42000809430008BB420008029800F034
:1042B00031F801900198039029E0029800F03DF94F
:1042C00001900198039022E0029840690A2803D1E6
:1042D000FFE7002003901AE05720039017E00298B0
:1042E000FFF7C0FE01900198039010E00298FFF7DD
:1042F00081FF01900198039009E00298FFF7D0FE3A
:1043000001900198039002E054200390FFE7039886
:1043100004B080BD80B586B004900498006A019016
:1043200000215022084600F03BFD0390039800282E
:1043300003D1FFE71220059023E0039801998864D8
:104340000498406A029002980068039948600298B5
:10435000406803998860029880680399C86003994F
:10436000E1204002486403994822012088540399BF
:10437000492200208854039A4A230821D1540590E9
:10438000FFE7059806B080BD80B58CB00B900A9110
:104390000992002008900A98401E0290082800D92F
:1043A000BFE00298810001A040588746D143000831
:1043B000FD430008294400085D4400084344000808
:1043C0002345000823450008D7440008D7440008C7
:1043D00009980790079800680B9948640798007936
:1043E0000B9948228854079840790B9949228854A0
:1043F000079880790B994A2288549BE00998079086
:104400000B98406C079908600B984821405C07990D
:1044100008710B984921405C079948710B984A2113
:10442000405C0799887185E0099806900B984C21AB
:10443000405C069908700B984B21405C06994870C7
:1044400078E009980690069800780B994C228854D9
:10445000069840780B994B2288546BE00B980068C3
:1044600004900498C069059009980190012804D02F
:10447000FFE7019802280CD016E00598807B802188
:104480000840802804D0FFE7059840690590FFE7C1
:104490000DE00598807B0006002804D5FFE705980D
:1044A00040690590FFE702E053200890FFE7059878
:1044B000203003900398042100F05CFA0998012849
:1044C00004D1FFE70B990020086403E00B9900205A
:1044D0000862FFE72EE00B98006804900498C0691A
:1044E00005900598807B802108400A9908394A1E6A
:1044F0009141C901884204D0FFE7059840690590C1
:10450000FFE705982030039003980068012803D145
:10451000FFE7FF20089003E0099803994863FFE74D
:1045200008E0022007215422009200F035FB009899
:104530000890FFE708980CB080BD80B584B0039068
:104540000398006A01900198806C029002980028FC
:1045500004D0FFE7029800F04DFEFFE7002004B012
:1045600080BD000010B594B0169C1290119110926D
:104570000F9300200190129801A93F2200F0D7FE6E
:104580000D900D98002803D0FFE70D98139035E0AB
:10459000F7480068FC2140580E900E98006C0028E7
:1045A00029D1FFE70E981299019A521C00F008FEDB
:1045B00011980E99486416980E99486510980E99AE
:1045C000C8650F980E9988650520029016980B9083
:1045D0000E980A90119902A888470D900D9800280E
:1045E00003D0FFE70D98139008E00E9901200864AE
:1045F0000020139002E012201390FFE7139814B0EC
:1046000010BDC04610B59AB0209C1F9C1E9C1D9CDE
:104610001C9C1890179116921593EA49049108680A
:104620002430149018980A68DC23D05017980A6830
:10463000E023D05016980A68D423D05015980A6801
:10464000D823D0501C980A68E423D0501D980A68DB
:10465000E823D0501E980A68EC23D0501F980968B0
:10466000F0228850FFE7FFE72098D64909685922D1
:104670009200885000216422084600F091FB0590CA
:104680000598002803D1FFE7122019906DE10598E5
:10469000CC490968FC2288501498383011900121C7
:1046A0000A02002000F07CFB1199C8601198C068D4
:1046B000002803D1FFE71220109002E000201090A4
:1046C000FFE700200F900E900D901098002800D06A
:1046D0009EE0BC480168D422895809910068D8211D
:1046E0004058089000200C900B900A90FFE7089823
:1046F00000285AD0FFE70998007806900998417879
:1047000007A801700078039002282AD0FFE70398D9
:10471000042840D1FFE70998C07800280BD1FFE7B3
:104720000A990B9840180B90099800790A900C98F8
:10473000401C0C900AE00A9809990979884204D231
:10474000FFE7099800790A90FFE7FFE7099880786A
:104750000D99884204D9FFE7099880780D90FFE70A
:104760001AE00C980F99884203D9FFE70C980F9034
:10477000FFE700200C900A990B9840180B900B98BB
:104780000E99884203D9FFE70B980E90FFE70020AF
:104790000B900A9000E0FFE706990898401A0890ED
:1047A0000699099840180990A1E70A990B984018B2
:1047B0000B900B980E99884203D9FFE70B980E9047
:1047C000FFE70C980F99884203D9FFE70C980F90E8
:1047D000FFE70F98002809D1FFE7022003214222BA
:1047E000029200F0D9F902981090FFE71098002883
:1047F0000DD1FFE70D98102809D3FFE70220032110
:104800001222019200F0C8F901981090FFE7FFE72B
:10481000109800281CD1FFE70F981499982288500F
:104820000E981499A02288500F9A00212023084640
:1048300000F0AAFB12901298002803D1FFE7122083
:10484000109004E01298149994228850FFE7FFE733
:104850000E98002840D0FFE7109800283CD1FFE7D1
:104860000E9A00216823084600F08EFB13901398DF
:10487000002803D1FFE7122010902CE01398149920
:104880009C228850FFE7139814999C2289580E9B0C
:1048900068225A43891888421CD2FFE70121CA02C4
:1048A000002000F07DFA1399C8621398C06A0028AE
:1048B00003D1FFE7122010900CE000201090109818
:1048C000002803D0FFE71520109003E0139868300C
:1048D0001390D8E7FFE702E000201390FFE710985D
:1048E000002803D1FFE7002019903EE0139800282C
:1048F0001CD0FFE7FFE7139814999C22895888423F
:104900000ED3FFE71398C06A002805D0FFE713987D
:10491000C06A00F06FFCFFE7139868381390EAE76D
:1049200014989C21405800F065FCFFE714989421EE
:104930004058002806D0FFE714989421405800F012
:1049400059FCFFE71498406C002805D0FFE7149845
:10495000406C00F04FFCFFE7EA480068FC2140583B
:1049600000F048FC10981990FFE719981AB010BD94
:10497000A405002080B584B003900291E14800684E
:10498000009002980399486200F0BEF901900398E4
:10499000006801280ED1FFE700988369039A0D2172
:1049A0009847019800F0BAF9039904200860FFE7DE
:1049B000FFE703E0019800F0B1F9FFE7002004B041
:1049C00080BDC046A405002080B584B0039002914C
:1049D00003982030019001980299FFF7CBFF002047
:1049E00004B080BD80B586B0049003910292049912
:1049F0000020086304980399029A00F017F80190C8
:104A00000198062803D1FFE7FE2005900AE00198EF
:104A1000032804D8FFE70498406A059002E00020CC
:104A20000590FFE7059806B080BD000080B58AB00C
:104A30000890079106920898406C012808D1FFE77A
:104A400008990020486208990420086309909FE0B3
:104A5000AC480068406A01900198012811D0FFE736
:104A6000019802280DD0FFE70198032809D0FFE73D
:104A700008992520486208990020086301200990C0
:104A800086E0A04800680590089880680290089821
:104A9000006B039003980090002808D0FFE700986F
:104AA00020284AD0FFE70098212859D067E00298D3
:104AB000C07B800700280FD0FFE70298807B0006AC
:104AC000002804D5FFE708990320886203E00899CD
:104AD00002208862FFE7FFE70898806A032815D163
:104AE000FFE70798002811D0FFE70698079988424A
:104AF0000CD0FFE707980299098AFBF77FFB002992
:104B000004D1FFE708990120886303E00899002099
:104B10008863FFE708990020886107980899486131
:104B200007980899C8610899C86808610899012020
:104B30000860089920200863FFE70298C07B80077F
:104B4000002809D0FFE702984068022803D1FFE758
:104B5000052009901CE0FFE7089921200863FFE782
:104B600005988369089A0C219847049004980428B2
:104B700004D8FFE7089900200863FFE705E00899DB
:104B8000002008630120099002E004980990FFE7E3
:104B900009980AB080BDC04680B584B003900291E8
:104BA00001920199F7480268D16002681169491CB5
:104BB000116100684069002808D0FFE7F1480068EB
:104BC000436903980299019A9847FFE704B080BDB2
:104BD00080B58AB00890079106920593089800283E
:104BE00004D0FFE70798002803D1FFE7FA200990D7
:104BF00085E00898079A002100F072FB0898E149C7
:104C00000860182001900898019A80183D4A1060A9
:104C1000019817221201801801900898019A8018B3
:104C200009680860019814300190069800280ED099
:104C3000FFE7059800280AD0FFE708980199401877
:104C4000D0490968486001981430019004E0CD48CB
:104C5000016808684860FFE70898019940180490C7
:104C60000498C01D04900498072188430490089874
:104C700007994018039004980399884203D3FFE7EB
:104C8000122009903BE003980499401A0090BD4817
:104C9000006800680499009A00F09CF906980028C2
:104CA0002AD0FFE70598002826D0FFE70698059A46
:104CB000002100F015FB069804900498C01D049094
:104CC000049807218843049006980599401802909B
:104CD00004980299884203D3FFE7122009900EE05E
:104CE00002980499401A0090A64800684068049908
:104CF000009A00F06FF9FFE700200990FFE709989C
:104D00000AB080BDA405002082B0EFF310800190AE
:104D10000198009072B6009802B0704782B000907F
:104D200000980190019880F3108802B0704782B01B
:104D300001900198411C0191007800900198411C5C
:104D40000191007801020098084300900198411CED
:104D500001910078010400980843009001980078C0
:104D60000106009808430090009802B0704782B096
:104D700001900091009801994A1C019208700098D6
:104D8000000A01994A1C0192087068464188019AFC
:104D9000531C01931170C0780199087002B07047DC
:104DA00080B58EB00C900B910A920B98002805D11B
:104DB000FFE774480068006809900CE00B98012830
:104DC00005D1FFE76F4800684068099002E00020C5
:104DD0000D90D3E0FFE70998002803D1FFE70020FA
:104DE0000D90CBE00A98002803D1FFE700200D903A
:104DF000C4E0FFE7FFE70C98401C002803D1FFE761
:104E000000200C90FFE70C98062803D8FFE7072046
:104E10000C90FFE70A98C01D072188430A900C9860
:104E2000072806D8FFE709980A9900F01FF90890AB
:104E300007E009980A990C9A891800F017F9089068
:104E4000FFE7089800280AD1FFE7FFE7FFE7022005
:104E500008211222FFF7A0FE00200D908EE0089896
:104E6000049004980068069006980899401A0290E9
:104E700002980838029008980830019001980C991F
:104E800008422ED0FFE70198083001900C99019854
:104E9000401801900C9901988843019001980838B6
:104EA0000190019806900698039004980068039971
:104EB00008600698001D0790079805900599BF485F
:104EC000086009994868401C486006980499086081
:104ED000069A08990298891A401802900698089034
:104EE000FFE702980A99401A14281FD3FFE7089990
:104EF0000A98401808300690069803900898049085
:104F000004980068039908600698001D07900798A8
:104F100005900599F048086009994868401C486068
:104F20000698049908600A980290FFE70898001D07
:104F300007900798049009980499086009990868EF
:104F4000029A801A08380860089809998968884286
:104F500007D1FFE7089804900498006809998860D1
:104F6000FFE70898083007900798029A002100F0A0
:104F7000B7F9FFE7FFE707980D90FFE70D980EB030
:104F800080BDC046A005002080B586B00590049184
:104F900003920293029800280FD0FFE70398019034
:104FA00002990020C043FBF729F901460198884285
:104FB00003D9FFE70020009008E005980499039BBF
:104FC000029A5A43FFF7ECFE0090FFE7009806B004
:104FD00080BD000080B588B00790069105920798C3
:104FE00000210091142200F07BF90098059903221A
:104FF000914305910699079AD1600599079A116125
:105000000699079A916005990839079A1160079ADD
:1050100002215160069904910499059A8918049116
:105020000499091F04910799029104990391029927
:10503000039A11600499091F049104990391069938
:10504000039A116006990291029903910499039AB7
:105050001160069904910499091D04910499019124
:10506000019A9D49116008B080BDC0468DB00B907B
:105070000A91002003900B9801684068C000401816
:10508000103800900A980099884203D3FFE7002067
:105090000C9090E00B998868C968884208D3FFE7B4
:1050A0000B9A9068D16812698918884203D9FFE782
:1050B00000200C907FE00B98806809900B98406866
:1050C000401C049000200590FFE70998001D019006
:1050D00001980290029800687F4988424ED1FFE70C
:1050E0000398002806D1FFE709980B9988600120F2
:1050F0000390FFE7099807900798006808900898C0
:105100000999401A059005980838059005980A995C
:10511000884201D3FFE744E0002005900898001D75
:10512000019001980290029800686B49884215D15D
:10513000FFE70898069006980068079908600B99A1
:105140004868401E48600B9880680899884204D1DE
:10515000FFE709980B998860FFE70DE00898069033
:105160000698006809900498002804D0FFE7049886
:10517000401E0490FFE7FFE7FFE705E0099807906E
:10518000079800680990FFE70498002804D0FFE71B
:105190000498401E0490FFE7FFE70498002894D18C
:1051A000FFE70598002803D1FFE700200C9002E0FC
:1051B00009980C90FFE70C980DB07047EEEEFFFFDA
:1051C00085B0049003910292039801900498009096
:1051D000FFE70298411E0291002809D0FFE70198DD
:1051E000411C0191007800994A1C00920870F0E778
:1051F00005B0704780B588B00790FFE7FFE7002053
:10520000069007980590059800283AD0FFE7059882
:10521000083805900598001D0490049802900298A3
:1052200000682D49884223D0FFE70598001D0490AF
:1052300004980190019800680690069800280ED006
:10524000FFE7069825490968096888420FD0FFE7FB
:105250000698224909684968884208D0FFE7FFE7B5
:10526000FFE7022008211922FFF796FC32E007E051
:10527000FFE7FFE7022008211922FFF78DFC29E054
:1052800007E0FFE7FFE7022008211922FFF784FC6F
:1052900020E00598001D04900498029002990E48A1
:1052A00008600598009000980068039006990868C7
:1052B000039A059BD21A8018086005980699896898
:1052C000884204D2FFE7059806998860FFE7FFE768
:1052D000FFE7FFE708B080BDEEEEFFFFA00500206E
:1052E00084B0039002A80170019203980090FFE738
:1052F0000198411E0191002806D0FFE7029800990D
:105300004A1C00920870F3E704B0704782B0019025
:105310000198411C01910178684601800199097842
:105320000A02009911430180008802B0704780B5DD
:1053300086B00490039102920498002803D1FFE7FD
:10534000FF20059026E000200190FFE704980199D6
:10535000405C002801D1FFE711E00198401C01905A
:1053600001980299884209D9FFE702200821FF220B
:105370000092FFF711FC009805900BE0E6E7039818
:10538000002804D0FFE7019803990860FFE7002098
:105390000590FFE7059806B080BD80B586B0049003
:1053A0000391029201930498002804D0FFE7039828
:1053B000002803D1FFE7FA20059007E0049803993D
:1053C000029A019BFFF704FC0590FFE7059806B0E1
:1053D00080BD000080B500F025F80A20FBF784F9B5
:1053E0000148FCF787FE80BD4409002080B582B0EB
:1053F00000200190FBF7F4FEFDF778FDFDF7DCFBE4
:10540000FDF7F6FBFDF728FCFDF75CFCFDF71CFD46
:10541000FDF79CFCFFF7DEFFFFE700F001F8FCE77B
:105420007047000080B50B48FDF72EFE0B48FDF7D6
:105430002BFE80BD80B506494A1C8B1C0548FDF734
:105440009DFD05494A1C8B1C0448FDF797FD80BD56
:1054500090090020BC0500209309002010060020C0
:1054600080B5FFF7E7FF80BD10B500F00BF8EFF354
:1054700000804000800F012801D0012010BD0020D5
:1054800010BD00000123DB0502000A430DD4DA42FF
:1054900003D49A4207D488427047D84214D4D942E0
:1054A00012D48842704780427047DA4203D59A424C
:1054B000F9D5814270475B004200DA4204D24A00CB
:1054C000DA4201D28142704710B5024AFBF756F822
:1054D00010BD00BF0900160470B5420064414B00C6
:1054E0005C41120E39D01B0E38D0FF2A3CD0FF2B66
:1054F0003AD0D2187F3A40024902400A490A451878
:10550000ED0106004E43000A090A48430104731ADC
:105510004019190C4318990F04D05B080121490761
:105520005B1A521CD80904D3401CF50301D19D0617
:1055300007D0FF2A08D2D50506D0E407204340193A
:1055400070BD0125A843F4E7002A01DCE00770BD27
:105550002402FF202043C00570BD1B0EFF2A03D08C
:10556000FF2B01D0E00770BDFF2636064500B5428F
:1055700006D84D00B54203D8D218FF2A00D0E7E77D
:10558000004870BD0000C07F818283848586878843
:10559000898B8C8D8E8F919293959697999A9C9DDD
:1055A0009FA0A2A3A5A7A8AAACAEB0B2B3B5B7B945
:1055B000BCBEC0C2C5C7C9CCCED1D4D7D9DCDFE20E
:1055C000E6E9ECF0F3F7FAFE00000000000000004E
:1055D00000000000000000000000000000000000CB
:1055E00000000000000000000100000002000000B8
:1055F0000300000004000000060000000700000097
:105600000800000009000000303030303030303009
:10561000303030310053544D333220555342204402
:1056200065766963650053544D6963726F656C6597
:105630006374726F6E696373000000006056000847
:1056400000000020380000001C01000898560008E7
:1056500038000020681300003C0100080000000032
:10566000001BB70002000000000000000000000066
:1056700075785F736C6176655F636C6173735F638C
:1056800064635F61636D000098000020600100208A
:0856900001000000040000000D
:04000005080000C12E
:00000001FF
