:020000040800F2
:10000000480A002081010008111F0008411D000856
:1000100000000000000000000000000000000000E0
:10002000000000000000000000000000171F000892
:100030000000000000000000151F0008691F0008F4
:100040009301000893010008930100089301000840
:100050009301000893010008930100089301000830
:100060009301000893010008930100089301000820
:100070009301000801200008930100089301000883
:100080009301000800000000000000009301000838
:10009000000000009301000893010008930100088C
:1000A00093010008930100089301000893010008E0
:1000B00093010008000000000000000000000000A4
:1000C00000F002F800F04CF812A030C808382418EC
:1000D0002D18AC4201D100F043F80FCCA246AB463C
:1000E0000CA730CF2D1B083F3F197C427F1E544484
:1000F0002D090426F441641EAC4201D300F030F80F
:100100000126334200D0FB1A3343984754465D46DC
:10011000DFE70000E022000000230000103A02D3D5
:1001200078C878C1FAD8520701D330C830C101D598
:1001300004680C6070470000704700000023002432
:1001400000250026103A01D378C1FBD8520700D30E
:1001500030C100D50B6070471FB51FBD10B510BD75
:1001600000F0E3F81146FFF7F7FF02F00FF900F097
:10017000FBF803B4FFF7F2FF03BC00F001F9000045
:100180000748804707480047FEE7FEE7FEE7FEE72F
:10019000FEE7FEE704480549054A064B70470000A4
:1001A000F11F0008C100000848040020480A002090
:1001B0004806002048060020002203098B422CD369
:1001C000030A8B4211D300239C464EE003460B43A7
:1001D0003CD4002243088B4231D303098B421CD309
:1001E000030A8B4201D394463FE0C3098B4201D3FB
:1001F000CB01C01A524183098B4201D38B01C01A33
:10020000524143098B4201D34B01C01A52410309A9
:100210008B4201D30B01C01A5241C3088B4201D358
:10022000CB00C01A524183088B4201D38B00C01A05
:10023000524143088B4201D34B00C01A5241411A2C
:1002400000D201465241104670475DE0CA0F00D00F
:100250004942031000D3404253409C460022030908
:100260008B422DD3030A8B4212D38901FC2212BA8E
:10027000030A8B420CD3890192118B4208D3890166
:1002800092118B4204D389013AD0921100E089097E
:10029000C3098B4201D3CB01C01A524183098B425F
:1002A00001D38B01C01A524143098B4201D34B0148
:1002B000C01A524103098B4201D30B01C01A5241AB
:1002C000C3088B4201D3CB00C01A524183088B4232
:1002D00001D38B00C01A5241D9D243088B4201D3BB
:1002E0004B00C01A5241411A00D2014652411046F9
:1002F00063465B1001D34042002B00D54942704752
:1003000063465B1000D3404201B50549002802DC7A
:10031000491C084000E00846C046C04602BD00BF78
:10032000FFFFFF7F704770477047754600F024F865
:10033000AE46050069465346C008C000854618B061
:1003400020B5FFF727FF60BCB64600260027C0C5D2
:10035000C0C5C0C5C0C5C0C5C0C5C0C5C0C5403D7D
:10036000490849008D46704710B50446C046C0464E
:100370002046FFF7FEFE10BD004870471000002029
:1003800001491820ABBEFEE726000200704772B696
:10039000FFE7FEE78BB00A90099100200690FFE787
:1003A000099800680699C840002800D15BE10998C7
:1003B0000068069A0121914008400790079800289C
:1003C00000D14CE109984068022805D0FFE7099860
:1003D0004068122822D1FFE70A980699C9088900C7
:1003E0004018006A089006984007C10E0F20024688
:1003F0008A40089991430891099909690140069832
:100400004007C00E814008980843089008980A9950
:10041000069AD208920089180862FFE70A980068D5
:10042000089006984100032002468A4008999143AB
:100430000891099949680140069840008140089850
:100440000843089008980A990860099840680128AC
:100450000FD0FFE70998406802280AD0FFE7099803
:100460004068112805D0FFE70998406812282CD170
:10047000FFE70A98806808900698400003218140B1
:100480000898884308900998C16806984000814000
:1004900008980843089008980A9988600A98406864
:1004A000089006980121814008988843089009988F
:1004B00040681021084001090698814008980843C7
:1004C000089008980A994860FFE70998406803284F
:1004D00016D0FFE70A98C0680890069840000321EC
:1004E00081400898884308900998816806984000E0
:1004F000814008980843089008980A99C860FFE767
:100500000998C079C006002800D4A7E00698032106
:10051000884356494058089006988007C00E0F211E
:1005200081400898884308900A9805210907884265
:1005300003D1FFE7002005902DE00A984C4988423E
:1005400003D1FFE70120049022E00A98494988423C
:1005500003D1FFE70220039017E00A98464988423A
:1005600003D1FFE7032002900CE00A99434A0520DB
:10057000062300939142019001D0009801900198C8
:100580000290FFE702980390FFE703980490FFE7CB
:1005900004980590FFE7059906988007C00E8140F2
:1005A00008980843089008980699032291432F4A17
:1005B0008850334800680890079908988843089045
:1005C00009988079C007002805D0FFE707990898A7
:1005D00008430890FFE708982949086029480068FF
:1005E00008900799089888430890099880798007AF
:1005F000002805D5FFE70799089808430890FFE70A
:1006000008982049086020480068089007990898D1
:100610008843089009988079C006002805D5FFE72F
:100620000799089808430890FFE70898164908605A
:100630001648006808900799089888430890099818
:1006400080798006002805D5FFE7079908980843B8
:100650000890FFE708980D490860FFE7FFE7069854
:10066000401C06909CE60BB07047C04660180240E4
:100670000004005000080050000C0050001400500E
:1006800080180240841802400018024004180240FA
:10069000DC4800687047C04610B583B001900091F7
:1006A00001984121405C202839D1FFE7FFE70198FC
:1006B0004021405C012804D1FFE702A90220087014
:1006C00031E00199402201208854FFE7FFE70199BA
:1006D0004122242088540198016808680123984326
:1006E00008600198016808681C03A0430860009C2A
:1006F000019801680868204308600198016808684B
:1007000018430860019920208854FFE7019940228E
:1007100000208854FFE702A90020087003E002A926
:1007200002200870FFE702A8007803B010BD84B073
:100730000290019102984121405C20283FD1FFE7BF
:10074000FFE702984021405C012804D1FFE703A99C
:100750000220087037E00299402201208854FFE708
:10076000FFE7029941222420885402980168086812
:100770000123984308600298006800680090009880
:100780000F21090288430090019801020098084354
:10079000009000980299096808600298016808684A
:1007A00018430860029920208854FFE702994022EC
:1007B00000208854FFE703A90020087003E003A984
:1007C00002200870FFE703A8007804B0704700001B
:1007D00080B582B000900098002804D1FFE701A9FD
:1007E000012008707EE000984121405C002808D17B
:1007F000FFE70099402200208854009800F078F824
:10080000FFE7009941222420885400980168086875
:10081000012290430860009948680F231B06984303
:1008200009680861009801688868D203904388606D
:100830000098C068012808D1FFE700998868012264
:10084000D20310430968886007E000998868212274
:100850009202104309688860FFE70098C068022888
:1008600008D1FFE70098016848680122D2021043CE
:10087000486007E00098016848680122D20290436E
:100880004860FFE7009801684868184A10434860CC
:1008900000980168C8680122D3039843C860009992
:1008A00008694B6918438B691B0218430968C860C3
:1008B0000099C8690B6A18430968086000980168C4
:1008C000086810430860009900204864009A41239A
:1008D0002021D1540099086300994222885401A92B
:1008E0000870FFE701A8007802B080BD0080000218
:1008F00080B594B013900020019012901190109048
:100900000F900E900D900C900B900A90099008900B
:1009100007900690139800683249884232D1FFE769
:10092000022006900020099006A800F013FA002883
:1009300003D0FFE7FFF72BFDFFE7FFE72B48026837
:1009400002210A4302600068084005900598FFE70D
:10095000C0200E9012200F900020109011900620C1
:10096000129023480EA9FFF715FDFFE7F84802682B
:10097000012149050A430260006808400490049878
:10098000FFE72CE0139800681749884226D1FFE75B
:10099000FFE71648026801210A4302600068084028
:1009A00003900398FFE7C0200E9012200F900020C4
:1009B0001090119006201290052000070EA9FFF755
:1009C000E9FCFFE7E2480268012189050A43026069
:1009D0000068084002900298FFE7FFE7FFE714B0C5
:1009E00080BDC04600540040005800403410024012
:1009F000000400502D4802780249086880180860F9
:100A00007047C0464404002080B582B001A9002090
:100A10000870032000F00EF8002804D0FFE701A9B9
:100A20000120087002E000F047F8FFE701A8007815
:100A300002B080BD80B584B0039002A90020087088
:100A40001A480078002829D0FFE71948006801906B
:100A5000164801787D20C000FFF7AEFB01460198E3
:100A6000FFF7AAFB00F05AFE002812D1FFE7039817
:100A7000032809D8FFE703990022D04300F043F888
:100A800003980C49086003E002A901200870FFE701
:100A900003E002A901200870FFE703E002A901209A
:100AA0000870FFE702A8007804B080BD04000020B1
:100AB000000000200800002082B0FFE70B48026819
:100AC00001210A4302600068084001900198FFE795
:100AD000FFE79F480268012109070A430260006896
:100AE000084000900098FFE702B0704740100240B5
:100AF00080B582B0014601A801700021405601F086
:100B0000EDFB02B080BD80B584B0034603A803703E
:100B10000291019200214056029901F0F5FB04B0C8
:100B200080BD82B001900198006800900198B521C5
:100B30008900012343500199B3208200002088548A
:100B4000009A516D19435165009A516D0223194362
:100B5000516502B07047000070B588B006900698E5
:100B6000002804D1FFE707A901200870B7E0069824
:100B70005D49405C002809D1FFE70699A520820065
:100B800000208854069800F0B1F8FFE70699564A0D
:100B9000032088540698006801F06AFB05A900202C
:100BA0000870FFE705A800780699097988422DDAD0
:100BB000FFE7069805AB1C782822114661434118CF
:100BC0000120487518780699144644430919087598
:100BD00006981C781146614341180020C875069993
:100BE0001D7814466C430919486206991D7814460D
:100BF0006C430919886206991B785A438918C862A0
:100C0000FFE70598401C05A90870CBE705A900205F
:100C10000870FFE705A8007806990979884238DA54
:100C2000FFE7069805AB1C7828221146614341185E
:100C3000FF2425465635002048551978069D16464E
:100C40004E43AD195526B600A95506991E7815468E
:100C5000754349195834085506991D7814466C4354
:100C600009195924A400085106991D7814466C43AB
:100C700009192D24E400085106991B785A43891854
:100C80005B2292008850FFE70598401C05A9087078
:100C9000C0E7069908680A7C01AB1A73CA68039218
:100CA0008A68029249680191039B029A0199049C07
:100CB000009401F0B7FA06990020487406990A4A90
:100CC000012088540698007B012804D1FFE706988C
:100CD000FFF727FFFFE707A900200870FFE707A835
:100CE000007808B070BDC0469502000080B58CB099
:100CF0000B90002001900A900990089007900690B0
:100D00000590049003900B980068104988421AD10E
:100D1000FFE7082003900020089003A800F01AF8CD
:100D2000002803D0FFE7FFF732FBFFE7FFE77D482E
:100D30000268012149030A430260006808400290EA
:100D40000298FFE7FFE70CB080BDC046005C0040A2
:100D50003C10024080B588B0079004A900200870BC
:100D600003A90870079800784006002878D5FFE7A7
:100D700002A9002008706B480068C000002810D449
:100D8000FFE7FFE767480268012109070A4302609D
:100D90000068084001900198FFE702A9012008704F
:100DA000FFE7F8480068032109020840069006980A
:100DB000002817D0FFE706980799C969884211D023
:100DC000FFE7F04908680322120290430690086882
:100DD00001221204104308600868904308600698D6
:100DE0000860FFE706A80078C007002818D0FFE7D2
:100DF000FFF74EFC0590FFE7E248006880070028F7
:100E00000DD4FFE7FFF744FC0599401AE2498842F8
:100E100004D3FFE704A90320087000E0ECE7FFE734
:100E200004A8007800280AD1FFE7D6490868032201
:100E300012029043079AD2691043086003E00498B5
:100E400003A90870FFE702A80078012807D1FFE78F
:100E5000344908680122120790430860FFE7FFE762
:100E600007980078C007002809D0FFE72E490868D6
:100E700003229043079A926810430860FFE707989F
:100E80000078800700280AD5FFE727490868032271
:100E900012039043079AD26810430860FFE707984F
:100EA0000078800600280AD5FFE71F49086803225A
:100EB00092079043079A926910430860FFE70798EA
:100EC0000078000700280AD5FFE7184908680122C2
:100ED00012039043079A526910430860FFE707988E
:100EE0000078400700280AD5FFE70F490868032269
:100EF00092039043079A126910430860FFE707982E
:100F000000780006002809D5FFE7D0490868E022EC
:100F10009043079A526810430860FFE703A80078DF
:100F200008B080BD3C1002405410024058100240EE
:100F300080B584B0029001910298002804D1FFE7A7
:100F400003A90120087017E101988D49096807225B
:100F50001140884221D9FFE7894908680722904358
:100F6000019A10430860FFF793FB0090FFE7844865
:100F7000006807210840019988420DD0FFE7FFF77C
:100F800087FB0099401A8449884204D3FFE703A9EC
:100F900003200870F0E0EAE7FFE702980078800796
:100FA00000281AD5FFE702980078400700280AD5E4
:100FB000FFE7A74908680B22120210430722120319
:100FC00090430860FFE7A24908680F22120290438D
:100FD000029AD26810430860FFE702980078C007C1
:100FE00000287AD0FFE7994908681C229043029AAA
:100FF0009268104308600298406801280BD1FFE70F
:10100000924800688003002804D4FFE703A9012068
:101010000870B1E03DE00298406800280BD1FFE77E
:101020008A4800684005002804D4FFE703A901208E
:101030000870A1E02CE00298406802280BD1FFE77D
:10104000824800680002002804D4FFE703A90120B9
:10105000087091E01BE00298406803280BD1FFE77D
:10106000494800688007002804D4FFE703A901204D
:10107000087081E00AE0434800688007002804D433
:10108000FFE703A90120087076E0FFE7FFE7FFE72D
:10109000FFE76F49086807229043029A526810439D
:1010A0000860FFF7F5FA0090FFE76948006838210B
:1010B000084002994968C90088420DD0FFE7FFF750
:1010C000E7FA0099401A3449884204D3FFE703A99C
:1010D0000320087050E0E8E7FFE701982849096815
:1010E00007221140884221D2FFE7254908680722DC
:1010F0009043019A10430860FFF7CAFA0090FFE797
:101100001F48006807210840019988420DD0FFE779
:10111000FFF7BEFA0099401A1F49884204D3FFE73F
:1011200003A90320087027E0EAE7FFE702980078A8
:10113000400700280AD5FFE745490868072212033F
:101140009043029A126910430860FFE700F026F806
:101150003F4909680F22120211408A090B49895838
:101160001F221140C8400A4908600A480068FFF77A
:1011700061FC03A90870FFE703A8007804B080BDF4
:10118000002002405C10024060100240B4230008BE
:1011900000000020080000208913000080B584B002
:1011A0002A4800681C2108408008401C01902848FB
:1011B00000688006400F00280FD1FFE72348006831
:1011C0000721C9020840C10A012088400390039901
:1011D0002048FEF7F1FF029030E01D4800683821FA
:1011E0000840082803D1FFE71B48029025E0184873
:1011F000006838210840202804D1FFE70120C003FF
:10120000029019E01248006838210840182804D1DB
:10121000FFE77D20000202900DE00D4800683821B4
:101220000840102803D1FFE70A48029002E000209E
:101230000290FFE7FFE7FFE7FFE7FFE7029801996A
:10124000FEF7BAFF0290029804B080BD0010024081
:1012500008100240006CDC0200127A0080B586B0F3
:1012600004900498002804D1FFE705A90120087024
:101270003BE204980078C007002876D0FFE7F948E1
:101280000068382108400290029808280AD1FFE738
:1012900004984068002804D1FFE705A901200870E0
:1012A00023E261E0FFE704984068012109048842D5
:1012B00007D1FFE7EC4908680122120410430860D7
:1012C0001DE0049840680521090488420BD1FFE71E
:1012D000E54908680122930418430860086812046D
:1012E000104308600AE0E0490868012213049843AB
:1012F00008600868920490430860FFE7FFE7FFE793
:1013000004984068002817D0FFE7FFF7C1F9039061
:10131000FFE7F9480068800300280CD4FFE7FFF7D7
:10132000B7F90399401A652804D3FFE705A90320FC
:101330000870DAE1EDE716E0FFF7AAF90390FFE79E
:10134000ED480068800300280CD5FFE7FFF7A0F9FF
:101350000399401A652804D3FFE705A90320087004
:10136000C3E1EDE7FFE7FFE7FFE7049800788007B8
:10137000002800D490E0DF4800683821084002903F
:101380000298002835D1FFE70498C068002804D1EE
:10139000FFE705A901200870A7E1D84908687F2266
:1013A00012029043049A5269120210430860029894
:1013B000002811D1FFE7D04802680721C9028A43FB
:1013C000049B1B691A43026000680840C10ACC48AC
:1013D000C840CC490860FFE7CB480068FFF72AFB0C
:1013E000002804D0FFE705A9012008707DE1FFE790
:1013F00051E00498C06800282FD0FFE7BE49086874
:101400000722D2029043049A1269104308600868C8
:101410000122120210430860FFF73AF90390FFE738
:10142000B5480068400500280CD4FFE7FFF730F905
:101430000399401A032804D3FFE705A90320087085
:1014400053E1EDE7AD4908687F2212029043049A08
:1014500052691202104308601CE0A7490868012283
:10146000120290430860FFF713F90390FFE7A248C8
:101470000068400500280CD5FFE7FFF709F903993C
:10148000401A032804D3FFE705A9032008702CE1C4
:10149000EDE7FFE7FFE7FFE7049800780007002883
:1014A00050D5FFE7934800683821084018280AD132
:1014B000FFE704988069002804D1FFE705A901200F
:1014C000087012E13DE00498806900281CD0FFE715
:1014D0008E490868012210430860FFF7D9F803908D
:1014E000FFE78A480068800700280CD4FFE7FFF771
:1014F000CFF80399401A032804D3FFE705A9032076
:101500000870F2E0EDE71BE0804908680122904393
:101510000860FFF7BDF80390FFE77C48006880078C
:1015200000280CD5FFE7FFF7B3F80399401A03280A
:1015300004D3FFE705A903200870D6E0EDE7FFE735
:10154000FFE7FFE704980078400700287ED5FFE713
:1015500001A9002008706748006838210840202849
:101560000AD1FFE704988068002804D1FFE705A9A5
:1015700001200870B9E068E0FFE70498806801285E
:1015800006D1FFE76249086801221043086019E0AC
:101590000498806805280AD1FFE75D49086804229D
:1015A00010430860086801221043086009E05849A8
:1015B000086801229043086008680422904308608C
:1015C000FFE7FFE7FFE704988068002818D0FFE7EF
:1015D000FFF75EF80390FFE74D480068800700289A
:1015E0000DD4FFE7FFF754F80399401A49498842A0
:1015F00004D3FFE705A90320087076E0ECE717E0C5
:10160000FFF746F80390FFE741480068800700288D
:101610000DD5FFE7FFF73CF80399401A3D49884292
:1016200004D3FFE705A9032008705EE0ECE7FFE7BD
:1016300001A80078012807D1FFE73749086801228F
:10164000120790430860FFE7FFE7FFE70498007880
:10165000C006002845D5FFE70498C069002822D0BD
:1016600004E0C04608100240001002402249086809
:101670000122920510430860FFF70AF80390FFE784
:101680001D480068000200280CD4FFE7FFF700F8AF
:101690000399401A032804D3FFE705A90320087023
:1016A00023E0EDE71CE0144908680122920590430D
:1016B0000860FEF7EDFF0390FFE70F4800680002A7
:1016C00000280CD5FFE7FEF7E3FF0399401A032833
:1016D00004D3FFE705A90320087006E0EDE7FFE764
:1016E000FFE705A900200870FFE705A8007806B00D
:1016F00080BDC046081002400010024004100240A5
:10170000006CDC0200000020080000206010024095
:101710005C100240891300003C10024080B582B08A
:101720000190019800F0F8FB02B080BD81B00090FC
:1017300001B0704781B0009001B0704781B0009057
:1017400001B0704785B003900291FFE703983C21F8
:10175000405C012804D1FFE704A9022008705EE084
:1017600003993C2201208854FFE7FFE703993D22BB
:10177000022088540398006840680190039800682C
:101780008068009003980068644988420BD1FFE7A5
:1017900001980F210905884301900298416801983A
:1017A00008430190FFE70198702188430190029857
:1017B00001680198084301900198039909684860FD
:1017C00003980068554988420DD0FFE703980068E8
:1017D00001218907884206D0FFE703980068124973
:1017E00088420ED1FFE7009880218843009002983C
:1017F0008168009808430090009803990968886000
:10180000FFE703993D2201208854FFE703993C221A
:1018100000208854FFE704A900200870FFE704A80F
:10182000007805B07047C0460004004080B582B023
:1018300000900098002804D1FFE701A9012008705A
:1018400045E000983D21405C002808D1FFE7009961
:101850003C2200208854009800F03EF8FFE70099F1
:101860003D2202208854009901C900F0D1FB009963
:10187000482201208854FFE700993E220120885425
:1018800000993F22885400994022885400994122AF
:101890008854009942228854009943228854FFE7D3
:1018A000FFE700994422012088540099452288547A
:1018B000009946228854009947228854FFE70099EE
:1018C0003D220120885401A900200870FFE701A8EB
:1018D000007802B080BD000080B584B0039003980A
:1018E00000680E49884216D1FFE7FFE70C480268FE
:1018F0000121C9020A430260006808400290029870
:10190000FFE70D20019000221146FFF7FCF8019837
:10191000FFF7EEF8FFE704B080BDC046002C0140A1
:101920004010024080B586B00490039102A90020C7
:101930000870FFE704983C21405C012804D1FFE7D0
:1019400005A902200870AEE004993C2201208854C9
:10195000FFE7FFE704993D220220885404980068BD
:101960008068019001985249084001900198FF2138
:1019700009028843019001980499096888600398D6
:1019800000680090002875D0FFE70098102871D0FB
:10199000FFE7009820286DD0FFE70098302869D035
:1019A000FFE70098402858D0FFE7009850283AD029
:1019B000FFE70098602843D0FFE7009870280DD01B
:1019C000FFE7009801210903884206D0FFE700984D
:1019D00001214903884216D053E056E0049800687C
:1019E000039B99685A68DB6800F096FB04980068CE
:1019F000806801900198772108430190019804992B
:101A00000968886041E004980068039B99685A68F7
:101A1000DB6800F081FB049801688868012292036A
:101A20001043886031E004980068039A5168D268D6
:101A300000F0A6FB04980068502100F089FB24E028
:101A400004980068039A5168D26800F0C1FB0498BA
:101A50000068602100F07CFB17E004980068039A9E
:101A60005168D26800F08CFB04980068402100F0B7
:101A70006FFB0AE0049800680399096800F068FBAE
:101A800003E002A901200870FFE704993D2201202C
:101A90008854FFE704993C2200208854FFE702980D
:101AA00005A90870FFE705A8007806B080BDC0460C
:101AB00088FFCEFF81B0009001B0704780B584B040
:101AC000039003980068C06802900398006800695A
:101AD000019001A800788007002825D5FFE702A81B
:101AE0000078800700281ED5FFE7039801680220D0
:101AF000C043086103990120087703980068806952
:101B00008007002804D0FFE70398FFF7D3FF06E023
:101B1000039800F005F9039800F006F9FFE7039930
:101B200000200877FFE7FFE701A8007840070028BA
:101B300026D5FFE702A80078400700281FD5FFE759
:101B4000039801680420C0430861039902200877C4
:101B50000398006880698005800F002804D0FFE7A3
:101B60000398FFF7A7FF06E0039800F0D9F8039861
:101B700000F0DAF8FFE7039900200877FFE7FFE7B6
:101B800001A800780007002825D5FFE702A8007803
:101B9000000700281ED5FFE7039801680820C0430E
:101BA000086103990420087703980068C0698007DA
:101BB000002804D0FFE70398FFF77CFF06E00398B6
:101BC00000F0AEF8039800F0AFF8FFE703990020AB
:101BD0000877FFE7FFE701A80078C006002826D5B0
:101BE000FFE702A80078C00600281FD5FFE703988A
:101BF00001681020C0430861039908200877039802
:101C00000068C0698005800F002804D0FFE70398B2
:101C1000FFF750FF06E0039800F082F8039800F009
:101C200083F8FFE7039900200877FFE7FFE701A8A3
:101C30000078C007002810D0FFE702A80078C0078E
:101C4000002809D0FFE7039801680120C04308611C
:101C5000039800F06DF8FFE7FFE701988021084046
:101C6000802806D0FFE701A84078800600280FD51D
:101C7000FFE702A800780006002808D5FFE70398D0
:101C80000168254808610398FFF754FDFFE7FFE767
:101C900001A84078C00700280FD0FFE702A800780D
:101CA0000006002808D5FFE7039801681B48086173
:101CB0000398FFF73BFDFFE7FFE701A80078400628
:101CC000002810D5FFE702A800784006002809D5B3
:101CD000FFE7039801684020C0430861039800F0C3
:101CE0002BF8FFE7FFE701A800788006002810D551
:101CF000FFE702A800788006002809D5FFE70398CF
:101D000001682020C04308610398FFF717FDFFE733
:101D1000FFE704B080BDC0467FDFFFFFFFFEFFFF8F
:101D200081B0009001B0704781B0009001B0704761
:101D300081B0009001B0704781B0009001B0704751
:101D4000FFE7FEE782B0FFE70B48026801210A4384
:101D500002600068084001900198FFE7FFE706482D
:101D6000026802210A43026000680840009000985F
:101D7000FFE702B07047C0463410024080B582B021
:101D80001648019016490160304941600021816088
:101D90000122C260016141618161C1610162FEF79E
:101DA00017FD002803D0FFE7FEF7F1FAFFE70B4825
:101DB0000021FEF771FC002803D0FFE7FEF7E7FAE9
:101DC000FFE706480021FEF7B2FC002803D0FFE73A
:101DD000FEF7DDFAFFE702B080BDC04670000020CC
:101DE0000054004080B582B0164801901649016049
:101DF00016494160002181600122C2600161416198
:101E00008161C1610162FEF7E3FC002803D0FFE7B6
:101E1000FEF7BDFAFFE70B480021FEF73DFC002866
:101E200003D0FFE7FEF7B3FAFFE706480021FEF70D
:101E30007EFC002803D0FFE7FEF7A9FAFFE702B017
:101E400080BDC046C4000020005800404B199000DF
:101E500080B58AB0002101910991089107910691FE
:101E600005910491039169480290A64A0260164ABE
:101E7000426081606322C260016141618161FFF75C
:101E8000D5FC002803D0FFE7FEF781FAFFE7012029
:101E9000000306905D4806A9FFF744FD002803D023
:101EA000FFE7FEF774FAFFE7002003900490059027
:101EB000564803A9FFF746FC002803D0FFE7FEF7CA
:101EC00066FAFFE70AB080BDBF12000080B582B09D
:101ED0000D4801900D490160082101710221C17175
:101EE000417200218172C172017341738173C173A8
:101EF0000174FEF731FE002803D0FFE7FEF747FA32
:101F0000FFE702B080BDC04618010020005C004021
:101F1000FFE7FEE77047704780B584B002900298F3
:101F2000401E000E002803D0FFE70120039011E0BF
:101F30000298401E0949086000200190C043032117
:101F400000F0E2F9019806490860064A072111608D
:101F50000390FFE7039804B080BDC04614E000E0A2
:101F600018E000E010E000E080B5FEF743FD80BD22
:101F700010B58EB0002100910D910C910B910A913A
:101F8000099108910791069105910491039102919D
:101F90000191164B1A68012002430624A2431A60DD
:101FA00012220692020209920A9140210B918005A9
:101FB0000D9006A8FFF752F9002803D0FFE7FEF7BF
:101FC000E6F9FFE7072001900020029003900490BB
:101FD000059001A80121FEF7ABFF002803D0FFE721
:101FE000FEF7D5F9FFE70EB010BDC0460020024055
:101FF0000120C006014908607047C04608ED00E0B6
:1020000080B50248FFF75AFD80BDC046F8030020A6
:1020100083B00290019102980068009002983949BB
:1020200088420BD0FFE7029801218907884205D03A
:10203000FFE70298344988420AD1FFE700987021EF
:102040008843009001984168009808430090FFE79A
:1020500002982C4988421AD0FFE70298012189078B
:10206000884214D0FFE70298274988420FD0FFE743
:102070000298264988420AD0FFE7029824498842FC
:1020800005D0FFE70298234988420BD1FFE700986B
:1020900003210902884300900198C1680098084311
:1020A0000090FFE70098802188430199496908431F
:1020B0000090019880680299C862019800680299AE
:1020C000886202980F4988420AD0FFE702981049B7
:1020D000884205D0FFE702980E49884205D1FFE704
:1020E0000198006902990863FFE7029908680422D1
:1020F0001043086002990120486100980299086025
:1021000003B07047002C0140000400400020004054
:10211000004401400048014085B0049003910292C0
:1021200001930498806800900098FF210902884379
:10213000009003990298019A1202104301430098FB
:102140000843009000980499886005B0704700002B
:1021500083B002900191029880680090009807492E
:102160000840009001980099084307210843009017
:1021700000980299886003B07047C0468FFFCFFF78
:1021800085B00490039102920498006A009004992B
:10219000086A0122904308620498806901900198BE
:1021A000F0218843019002980101019808430190B1
:1021B00000980A21884300900399009808430090F2
:1021C00001980499886100980499086205B07047E5
:1021D00085B00490039102920498006A00900499DB
:1021E000086A10229043086204988069019001985F
:1021F0000F210903884301900298010301980843C5
:1022000001900098A0218843009003980101009854
:102210000843009001980499886100980499086225
:1022200005B07047B0B58CB0109C0794069305922A
:102230000491079908AA117306990A9105990991C1
:102240000499089103900398012202640399086C91
:102250009043086403980021019100F017F8019958
:10226000024602A80270039A516400780CB0B0BD17
:1022700082B0019004480090009A0199086C904344
:102280000864002002B0704780BF000083B0019056
:10229000684601700078002807D1FFE70199086CB3
:1022A0000122D2079043086410E0684600780128B4
:1022B00007D1FFE70199086C0122D2071043086497
:1022C00003E002A90120087004E0FFE702A9002052
:1022D0000870FFE702A8007803B0704781B001469C
:1022E0006846017000214056002809D4FFE768467F
:1022F00001781F2001400120884002490860FFE763
:1023000001B0704700E100E070B582B0024601A85C
:102310000270009100214056002816D4FFE70024E7
:1023200001A908570322D3431840174A8058095778
:102330008C07E50EFF24AC40A043009CA401E4B24E
:10234000AC402043194088501AE001A908780F24B6
:10235000204008380322D34318400A4A80580025F9
:1023600049578D07EE0EFF25B540A843009DAD01EE
:10237000EDB2B54028432140083919408850FFE7A5
:1023800002B070BD1CED00E000E400E080B582B05A
:1023900000200190FEF738FBFFF7EAFDFFF7D2FCC3
:1023A000FFF7ECFCFFF71EFDFFF752FDFFF78EFD78
:1023B000FFE7FEE700000000000000000000000052
:1023C000000000000000000000000000000000000D
:1023D00000000000010000000200000003000000F7
:1023E00004000000060000000700000008000000D4
:1023F0000900000018240008000000201000000060
:102400001C0100082824000810000020380A0000E1
:102410003C01000800000000001BB70001000000A4
:082420000400000000000000B0
:04000005080000C12E
:00000001FF
